{"contracts/XPaymaster.sol":{"XPaymaster":{"abi":[{"inputs":[{"internalType":"contract IEntryPoint","name":"_entryPoint","type":"address"},{"internalType":"address","name":"_verifyingSigner","type":"address"}],"stateMutability":"nonpayable","type":"constructor"},{"inputs":[],"name":"ECDSAInvalidSignature","type":"error"},{"inputs":[{"internalType":"uint256","name":"length","type":"uint256"}],"name":"ECDSAInvalidSignatureLength","type":"error"},{"inputs":[{"internalType":"bytes32","name":"s","type":"bytes32"}],"name":"ECDSAInvalidSignatureS","type":"error"},{"inputs":[{"internalType":"address","name":"owner","type":"address"}],"name":"OwnableInvalidOwner","type":"error"},{"inputs":[{"internalType":"address","name":"account","type":"address"}],"name":"OwnableUnauthorizedAccount","type":"error"},{"anonymous":false,"inputs":[{"indexed":true,"internalType":"address","name":"previousOwner","type":"address"},{"indexed":true,"internalType":"address","name":"newOwner","type":"address"}],"name":"OwnershipTransferred","type":"event"},{"inputs":[],"name":"COST_OF_POST","outputs":[{"internalType":"uint256","name":"","type":"uint256"}],"stateMutability":"view","type":"function"},{"inputs":[{"internalType":"uint32","name":"unstakeDelaySec","type":"uint32"}],"name":"addStake","outputs":[],"stateMutability":"payable","type":"function"},{"inputs":[],"name":"deposit","outputs":[],"stateMutability":"payable","type":"function"},{"inputs":[],"name":"entryPoint","outputs":[{"internalType":"contract IEntryPoint","name":"","type":"address"}],"stateMutability":"view","type":"function"},{"inputs":[],"name":"getDeposit","outputs":[{"internalType":"uint256","name":"","type":"uint256"}],"stateMutability":"view","type":"function"},{"inputs":[],"name":"owner","outputs":[{"internalType":"address","name":"","type":"address"}],"stateMutability":"view","type":"function"},{"inputs":[{"internalType":"enum IPaymaster.PostOpMode","name":"mode","type":"uint8"},{"internalType":"bytes","name":"context","type":"bytes"},{"internalType":"uint256","name":"actualGasCost","type":"uint256"}],"name":"postOp","outputs":[],"stateMutability":"nonpayable","type":"function"},{"inputs":[],"name":"renounceOwnership","outputs":[],"stateMutability":"nonpayable","type":"function"},{"inputs":[{"internalType":"address","name":"_newSigner","type":"address"}],"name":"setVerifyingSigner","outputs":[],"stateMutability":"nonpayable","type":"function"},{"inputs":[{"internalType":"address","name":"newOwner","type":"address"}],"name":"transferOwnership","outputs":[],"stateMutability":"nonpayable","type":"function"},{"inputs":[],"name":"unlockStake","outputs":[],"stateMutability":"nonpayable","type":"function"},{"inputs":[{"components":[{"internalType":"address","name":"sender","type":"address"},{"internalType":"uint256","name":"nonce","type":"uint256"},{"internalType":"bytes","name":"initCode","type":"bytes"},{"internalType":"bytes","name":"callData","type":"bytes"},{"internalType":"uint256","name":"callGasLimit","type":"uint256"},{"internalType":"uint256","name":"verificationGasLimit","type":"uint256"},{"internalType":"uint256","name":"preVerificationGas","type":"uint256"},{"internalType":"uint256","name":"maxFeePerGas","type":"uint256"},{"internalType":"uint256","name":"maxPriorityFeePerGas","type":"uint256"},{"internalType":"bytes","name":"paymasterAndData","type":"bytes"},{"internalType":"bytes","name":"signature","type":"bytes"}],"internalType":"struct UserOperation","name":"userOp","type":"tuple"},{"internalType":"bytes32","name":"userOpHash","type":"bytes32"},{"internalType":"uint256","name":"maxCost","type":"uint256"}],"name":"validatePaymasterUserOp","outputs":[{"internalType":"bytes","name":"context","type":"bytes"},{"internalType":"uint256","name":"validationData","type":"uint256"}],"stateMutability":"nonpayable","type":"function"},{"inputs":[],"name":"verifyingSigner","outputs":[{"internalType":"address","name":"","type":"address"}],"stateMutability":"view","type":"function"},{"inputs":[{"internalType":"address payable","name":"withdrawAddress","type":"address"}],"name":"withdrawStake","outputs":[],"stateMutability":"nonpayable","type":"function"},{"inputs":[{"internalType":"address payable","name":"withdrawAddress","type":"address"},{"internalType":"uint256","name":"amount","type":"uint256"}],"name":"withdrawTo","outputs":[],"stateMutability":"nonpayable","type":"function"}],"evm":{"bytecode":{"linkReferences":{},"object":"60a03461011157601f610ce138819003918201601f19168301916001600160401b038311848410176101165780849260409485528339810103126101115780516001600160a01b039182821682036101115760200151908282168092036101115733156100f8576000549060018060a01b0319913383821617600055604051943391167f8be0079c531659141344cd1fd0a4f28419497f9722a3daafe3b4186f6b6457e0600080a36080526001541617600155610bb4908161012d823960805181818161026b01528181610317015281816103c90152818161043f015281816104aa0152818161065a015281816106e001526107f70152f35b604051631e4fbdf760e01b815260006004820152602490fd5b600080fd5b634e487b7160e01b600052604160045260246000fdfe60406080815260048036101561001457600080fd5b600091823560e01c9081630396cb60146106b757838263205c28781461062d5750816323d9ac9b14610604578163715018a6146105aa578163796d43711461058d5781638da5cb5b14610565578163a9a23409146104d9578163b0d691fe1461049557838263bb9fe6bf14610422578263c23a5cea1461039b57508163c399ec88146102e957838263d0e30db01461025b57508163f2fde38b146101c3578163f465c77e14610118575063f5cba98c146100cd57600080fd5b3461011457602036600319011261011457356001600160a01b03811690819003610114576100f96107c9565b6bffffffffffffffffffffffff60a01b600154161760015580f35b5080fd5b905082346101c0576060926003196060813601126101b85781359067ffffffffffffffff82116101bc576101609082360301126101b8576101688492869261015e6107f5565b6024359101610897565b8391935194859383855285518094860152815b8481106101a1575050606080955083850101526020830152601f80199101168101030190f35b60208782018101518983018401528896500161017b565b8280fd5b8380fd5b80fd5b9050346101b85760203660031901126101b8576001600160a01b03823581811693919290849003610257576101f66107c9565b8315610241575050600054826bffffffffffffffffffffffff60a01b821617600055167f8be0079c531659141344cd1fd0a4f28419497f9722a3daafe3b4186f6b6457e0600080a380f35b51631e4fbdf760e01b8152908101849052602490fd5b8480fd5b809392506003193601126102e5577f00000000000000000000000000000000000000000000000000000000000000006001600160a01b031691823b156102e0578390602483518095819363b760faf960e01b8352309083015234905af19081156102d757506102c75750f35b6102d090610761565b6101c05780f35b513d84823e3d90fd5b505050fd5b5050fd5b9050346101b857826003193601126101b85780516370a0823160e01b815230928101929092526020826024817f00000000000000000000000000000000000000000000000000000000000000006001600160a01b03165afa918215610391578392610359575b6020838351908152f35b9091506020813d602011610389575b81610375602093836107a7565b810103126101b8576020925051903861034f565b3d9150610368565b81513d85823e3d90fd5b929150346102e55760203660031901126102e5576103b7610746565b6103bf6107c9565b6001600160a01b037f00000000000000000000000000000000000000000000000000000000000000008116803b1561041e578592836024928651978895869463611d2e7560e11b865216908401525af19081156102d757506102c75750f35b8580fd5b929150346102e557826003193601126102e55761043d6107c9565b7f00000000000000000000000000000000000000000000000000000000000000006001600160a01b031691823b156102e057815163bb9fe6bf60e01b81529284918491829084905af19081156102d757506102c75750f35b839034610114578160031936011261011457517f00000000000000000000000000000000000000000000000000000000000000006001600160a01b03168152602090f35b8284346101c05760603660031901126101c0576003823510156101c05760243567ffffffffffffffff8082116101b857366023830112156101b857818401359081116101b857369101602401116101c0575060206064926105386107f5565b5162461bcd60e51b815291820152600d60248201526c6d757374206f7665727269646560981b6044820152fd5b839034610114578160031936011261011457905490516001600160a01b039091168152602090f35b83903461011457816003193601126101145760209051613a988152f35b83346101c057806003193601126101c0576105c36107c9565b600080546001600160a01b0319811682556001600160a01b03167f8be0079c531659141344cd1fd0a4f28419497f9722a3daafe3b4186f6b6457e08280a380f35b83903461011457816003193601126101145760015490516001600160a01b039091168152602090f35b929150346102e557806003193601126102e557610648610746565b6106506107c9565b6001600160a01b037f00000000000000000000000000000000000000000000000000000000000000008116803b1561041e578592836044928651978895869463040b850f60e31b8652169084015260243560248401525af19081156102d757506102c75750f35b905060203660031901126101b85782823563ffffffff8116809103610114576106de6107c9565b7f00000000000000000000000000000000000000000000000000000000000000006001600160a01b031693843b156101b85760249084519586938492621cb65b60e51b845283015234905af19081156102d7575061073a575080f35b61074390610761565b80f35b600435906001600160a01b038216820361075c57565b600080fd5b67ffffffffffffffff811161077557604052565b634e487b7160e01b600052604160045260246000fd5b6020810190811067ffffffffffffffff82111761077557604052565b90601f8019910116810190811067ffffffffffffffff82111761077557604052565b6000546001600160a01b031633036107dd57565b60405163118cdaa760e01b8152336004820152602490fd5b7f00000000000000000000000000000000000000000000000000000000000000006001600160a01b0316330361082757565b60405162461bcd60e51b815260206004820152601560248201527414d95b99195c881b9bdd08115b9d1c9e541bda5b9d605a1b6044820152606490fd5b903590601e198136030182121561075c570180359067ffffffffffffffff821161075c5760200191813603831361075c57565b6101208101929160856108aa8584610864565b905010610a13576108bb8483610864565b601a1161075c5760140135936001600160d01b03196108da8285610864565b92602093841161075c5782601a6108f49301351695610864565b93909284811161075c57601f199267ffffffffffffffff908685018281116107755760409661092d858951986000198c011601886107a7565b818752368982011161075c57840184870137600080978601528551928301938452891685830152866046830152602c82526060820190828210908211176109ff5784525190207f19457468657265756d205369676e6564204d6573736167653a0a3332000000008452601c52603c83206109b3916109aa91610a2d565b90929192610a69565b6001546001600160a01b039081169116036109e85751906109d38261078b565b81529260301c65ffffffffffff60a01b161790565b5192935090506109f78261078b565b815290600190565b634e487b7160e01b86526041600452602486fd5b50509050604051610a238161078b565b6000815290600190565b8151919060418303610a5e57610a5792506020820151906060604084015193015160001a90610aee565b9192909190565b505060009160029190565b6004811015610ad85780610a7b575050565b60018103610a955760405163f645eedf60e01b8152600490fd5b60028103610ab65760405163fce698f760e01b815260048101839052602490fd5b600314610ac05750565b602490604051906335e2f38360e21b82526004820152fd5b634e487b7160e01b600052602160045260246000fd5b91907f7fffffffffffffffffffffffffffffff5d576e7357a4501ddfe92f46681b20a08411610b7257926020929160ff608095604051948552168484015260408301526060820152600092839182805260015afa15610b665780516001600160a01b03811615610b5d57918190565b50809160019190565b604051903d90823e3d90fd5b5050506000916003919056fea2646970667358221220e0dc2524628f076017395a30b3dfd30f5731adb43c8ef20b5818cb397f5d4e5464736f6c63430008180033","opcodes":"PUSH1 0xA0 CALLVALUE PUSH2 0x111 JUMPI PUSH1 0x1F PUSH2 0xCE1 CODESIZE DUP2 SWAP1 SUB SWAP2 DUP3 ADD PUSH1 0x1F NOT AND DUP4 ADD SWAP2 PUSH1 0x1 PUSH1 0x1 PUSH1 0x40 SHL SUB DUP4 GT DUP5 DUP5 LT OR PUSH2 0x116 JUMPI DUP1 DUP5 SWAP3 PUSH1 0x40 SWAP5 DUP6 MSTORE DUP4 CODECOPY DUP2 ADD SUB SLT PUSH2 0x111 JUMPI DUP1 MLOAD PUSH1 0x1 PUSH1 0x1 PUSH1 0xA0 SHL SUB SWAP2 DUP3 DUP3 AND DUP3 SUB PUSH2 0x111 JUMPI PUSH1 0x20 ADD MLOAD SWAP1 DUP3 DUP3 AND DUP1 SWAP3 SUB PUSH2 0x111 JUMPI CALLER ISZERO PUSH2 0xF8 JUMPI PUSH1 0x0 SLOAD SWAP1 PUSH1 0x1 DUP1 PUSH1 0xA0 SHL SUB NOT SWAP2 CALLER DUP4 DUP3 AND OR PUSH1 0x0 SSTORE PUSH1 0x40 MLOAD SWAP5 CALLER SWAP2 AND PUSH32 0x8BE0079C531659141344CD1FD0A4F28419497F9722A3DAAFE3B4186F6B6457E0 PUSH1 0x0 DUP1 LOG3 PUSH1 0x80 MSTORE PUSH1 0x1 SLOAD AND OR PUSH1 0x1 SSTORE PUSH2 0xBB4 SWAP1 DUP2 PUSH2 0x12D DUP3 CODECOPY PUSH1 0x80 MLOAD DUP2 DUP2 DUP2 PUSH2 0x26B ADD MSTORE DUP2 DUP2 PUSH2 0x317 ADD MSTORE DUP2 DUP2 PUSH2 0x3C9 ADD MSTORE DUP2 DUP2 PUSH2 0x43F ADD MSTORE DUP2 DUP2 PUSH2 0x4AA ADD MSTORE DUP2 DUP2 PUSH2 0x65A ADD MSTORE DUP2 DUP2 PUSH2 0x6E0 ADD MSTORE PUSH2 0x7F7 ADD MSTORE RETURN JUMPDEST PUSH1 0x40 MLOAD PUSH4 0x1E4FBDF7 PUSH1 0xE0 SHL DUP2 MSTORE PUSH1 0x0 PUSH1 0x4 DUP3 ADD MSTORE PUSH1 0x24 SWAP1 REVERT JUMPDEST PUSH1 0x0 DUP1 REVERT JUMPDEST PUSH4 0x4E487B71 PUSH1 0xE0 SHL PUSH1 0x0 MSTORE PUSH1 0x41 PUSH1 0x4 MSTORE PUSH1 0x24 PUSH1 0x0 REVERT INVALID PUSH1 0x40 PUSH1 0x80 DUP2 MSTORE PUSH1 0x4 DUP1 CALLDATASIZE LT ISZERO PUSH2 0x14 JUMPI PUSH1 0x0 DUP1 REVERT JUMPDEST PUSH1 0x0 SWAP2 DUP3 CALLDATALOAD PUSH1 0xE0 SHR SWAP1 DUP2 PUSH4 0x396CB60 EQ PUSH2 0x6B7 JUMPI DUP4 DUP3 PUSH4 0x205C2878 EQ PUSH2 0x62D JUMPI POP DUP2 PUSH4 0x23D9AC9B EQ PUSH2 0x604 JUMPI DUP2 PUSH4 0x715018A6 EQ PUSH2 0x5AA JUMPI DUP2 PUSH4 0x796D4371 EQ PUSH2 0x58D JUMPI DUP2 PUSH4 0x8DA5CB5B EQ PUSH2 0x565 JUMPI DUP2 PUSH4 0xA9A23409 EQ PUSH2 0x4D9 JUMPI DUP2 PUSH4 0xB0D691FE EQ PUSH2 0x495 JUMPI DUP4 DUP3 PUSH4 0xBB9FE6BF EQ PUSH2 0x422 JUMPI DUP3 PUSH4 0xC23A5CEA EQ PUSH2 0x39B JUMPI POP DUP2 PUSH4 0xC399EC88 EQ PUSH2 0x2E9 JUMPI DUP4 DUP3 PUSH4 0xD0E30DB0 EQ PUSH2 0x25B JUMPI POP DUP2 PUSH4 0xF2FDE38B EQ PUSH2 0x1C3 JUMPI DUP2 PUSH4 0xF465C77E EQ PUSH2 0x118 JUMPI POP PUSH4 0xF5CBA98C EQ PUSH2 0xCD JUMPI PUSH1 0x0 DUP1 REVERT JUMPDEST CALLVALUE PUSH2 0x114 JUMPI PUSH1 0x20 CALLDATASIZE PUSH1 0x3 NOT ADD SLT PUSH2 0x114 JUMPI CALLDATALOAD PUSH1 0x1 PUSH1 0x1 PUSH1 0xA0 SHL SUB DUP2 AND SWAP1 DUP2 SWAP1 SUB PUSH2 0x114 JUMPI PUSH2 0xF9 PUSH2 0x7C9 JUMP JUMPDEST PUSH12 0xFFFFFFFFFFFFFFFFFFFFFFFF PUSH1 0xA0 SHL PUSH1 0x1 SLOAD AND OR PUSH1 0x1 SSTORE DUP1 RETURN JUMPDEST POP DUP1 REVERT JUMPDEST SWAP1 POP DUP3 CALLVALUE PUSH2 0x1C0 JUMPI PUSH1 0x60 SWAP3 PUSH1 0x3 NOT PUSH1 0x60 DUP2 CALLDATASIZE ADD SLT PUSH2 0x1B8 JUMPI DUP2 CALLDATALOAD SWAP1 PUSH8 0xFFFFFFFFFFFFFFFF DUP3 GT PUSH2 0x1BC JUMPI PUSH2 0x160 SWAP1 DUP3 CALLDATASIZE SUB ADD SLT PUSH2 0x1B8 JUMPI PUSH2 0x168 DUP5 SWAP3 DUP7 SWAP3 PUSH2 0x15E PUSH2 0x7F5 JUMP JUMPDEST PUSH1 0x24 CALLDATALOAD SWAP2 ADD PUSH2 0x897 JUMP JUMPDEST DUP4 SWAP2 SWAP4 MLOAD SWAP5 DUP6 SWAP4 DUP4 DUP6 MSTORE DUP6 MLOAD DUP1 SWAP5 DUP7 ADD MSTORE DUP2 JUMPDEST DUP5 DUP2 LT PUSH2 0x1A1 JUMPI POP POP PUSH1 0x60 DUP1 SWAP6 POP DUP4 DUP6 ADD ADD MSTORE PUSH1 0x20 DUP4 ADD MSTORE PUSH1 0x1F DUP1 NOT SWAP2 ADD AND DUP2 ADD SUB ADD SWAP1 RETURN JUMPDEST PUSH1 0x20 DUP8 DUP3 ADD DUP2 ADD MLOAD DUP10 DUP4 ADD DUP5 ADD MSTORE DUP9 SWAP7 POP ADD PUSH2 0x17B JUMP JUMPDEST DUP3 DUP1 REVERT JUMPDEST DUP4 DUP1 REVERT JUMPDEST DUP1 REVERT JUMPDEST SWAP1 POP CALLVALUE PUSH2 0x1B8 JUMPI PUSH1 0x20 CALLDATASIZE PUSH1 0x3 NOT ADD SLT PUSH2 0x1B8 JUMPI PUSH1 0x1 PUSH1 0x1 PUSH1 0xA0 SHL SUB DUP3 CALLDATALOAD DUP2 DUP2 AND SWAP4 SWAP2 SWAP3 SWAP1 DUP5 SWAP1 SUB PUSH2 0x257 JUMPI PUSH2 0x1F6 PUSH2 0x7C9 JUMP JUMPDEST DUP4 ISZERO PUSH2 0x241 JUMPI POP POP PUSH1 0x0 SLOAD DUP3 PUSH12 0xFFFFFFFFFFFFFFFFFFFFFFFF PUSH1 0xA0 SHL DUP3 AND OR PUSH1 0x0 SSTORE AND PUSH32 0x8BE0079C531659141344CD1FD0A4F28419497F9722A3DAAFE3B4186F6B6457E0 PUSH1 0x0 DUP1 LOG3 DUP1 RETURN JUMPDEST MLOAD PUSH4 0x1E4FBDF7 PUSH1 0xE0 SHL DUP2 MSTORE SWAP1 DUP2 ADD DUP5 SWAP1 MSTORE PUSH1 0x24 SWAP1 REVERT JUMPDEST DUP5 DUP1 REVERT JUMPDEST DUP1 SWAP4 SWAP3 POP PUSH1 0x3 NOT CALLDATASIZE ADD SLT PUSH2 0x2E5 JUMPI PUSH32 0x0 PUSH1 0x1 PUSH1 0x1 PUSH1 0xA0 SHL SUB AND SWAP2 DUP3 EXTCODESIZE ISZERO PUSH2 0x2E0 JUMPI DUP4 SWAP1 PUSH1 0x24 DUP4 MLOAD DUP1 SWAP6 DUP2 SWAP4 PUSH4 0xB760FAF9 PUSH1 0xE0 SHL DUP4 MSTORE ADDRESS SWAP1 DUP4 ADD MSTORE CALLVALUE SWAP1 GAS CALL SWAP1 DUP2 ISZERO PUSH2 0x2D7 JUMPI POP PUSH2 0x2C7 JUMPI POP RETURN JUMPDEST PUSH2 0x2D0 SWAP1 PUSH2 0x761 JUMP JUMPDEST PUSH2 0x1C0 JUMPI DUP1 RETURN JUMPDEST MLOAD RETURNDATASIZE DUP5 DUP3 RETURNDATACOPY RETURNDATASIZE SWAP1 REVERT JUMPDEST POP POP POP REVERT JUMPDEST POP POP REVERT JUMPDEST SWAP1 POP CALLVALUE PUSH2 0x1B8 JUMPI DUP3 PUSH1 0x3 NOT CALLDATASIZE ADD SLT PUSH2 0x1B8 JUMPI DUP1 MLOAD PUSH4 0x70A08231 PUSH1 0xE0 SHL DUP2 MSTORE ADDRESS SWAP3 DUP2 ADD SWAP3 SWAP1 SWAP3 MSTORE PUSH1 0x20 DUP3 PUSH1 0x24 DUP2 PUSH32 0x0 PUSH1 0x1 PUSH1 0x1 PUSH1 0xA0 SHL SUB AND GAS STATICCALL SWAP2 DUP3 ISZERO PUSH2 0x391 JUMPI DUP4 SWAP3 PUSH2 0x359 JUMPI JUMPDEST PUSH1 0x20 DUP4 DUP4 MLOAD SWAP1 DUP2 MSTORE RETURN JUMPDEST SWAP1 SWAP2 POP PUSH1 0x20 DUP2 RETURNDATASIZE PUSH1 0x20 GT PUSH2 0x389 JUMPI JUMPDEST DUP2 PUSH2 0x375 PUSH1 0x20 SWAP4 DUP4 PUSH2 0x7A7 JUMP JUMPDEST DUP2 ADD SUB SLT PUSH2 0x1B8 JUMPI PUSH1 0x20 SWAP3 POP MLOAD SWAP1 CODESIZE PUSH2 0x34F JUMP JUMPDEST RETURNDATASIZE SWAP2 POP PUSH2 0x368 JUMP JUMPDEST DUP2 MLOAD RETURNDATASIZE DUP6 DUP3 RETURNDATACOPY RETURNDATASIZE SWAP1 REVERT JUMPDEST SWAP3 SWAP2 POP CALLVALUE PUSH2 0x2E5 JUMPI PUSH1 0x20 CALLDATASIZE PUSH1 0x3 NOT ADD SLT PUSH2 0x2E5 JUMPI PUSH2 0x3B7 PUSH2 0x746 JUMP JUMPDEST PUSH2 0x3BF PUSH2 0x7C9 JUMP JUMPDEST PUSH1 0x1 PUSH1 0x1 PUSH1 0xA0 SHL SUB PUSH32 0x0 DUP2 AND DUP1 EXTCODESIZE ISZERO PUSH2 0x41E JUMPI DUP6 SWAP3 DUP4 PUSH1 0x24 SWAP3 DUP7 MLOAD SWAP8 DUP9 SWAP6 DUP7 SWAP5 PUSH4 0x611D2E75 PUSH1 0xE1 SHL DUP7 MSTORE AND SWAP1 DUP5 ADD MSTORE GAS CALL SWAP1 DUP2 ISZERO PUSH2 0x2D7 JUMPI POP PUSH2 0x2C7 JUMPI POP RETURN JUMPDEST DUP6 DUP1 REVERT JUMPDEST SWAP3 SWAP2 POP CALLVALUE PUSH2 0x2E5 JUMPI DUP3 PUSH1 0x3 NOT CALLDATASIZE ADD SLT PUSH2 0x2E5 JUMPI PUSH2 0x43D PUSH2 0x7C9 JUMP JUMPDEST PUSH32 0x0 PUSH1 0x1 PUSH1 0x1 PUSH1 0xA0 SHL SUB AND SWAP2 DUP3 EXTCODESIZE ISZERO PUSH2 0x2E0 JUMPI DUP2 MLOAD PUSH4 0xBB9FE6BF PUSH1 0xE0 SHL DUP2 MSTORE SWAP3 DUP5 SWAP2 DUP5 SWAP2 DUP3 SWAP1 DUP5 SWAP1 GAS CALL SWAP1 DUP2 ISZERO PUSH2 0x2D7 JUMPI POP PUSH2 0x2C7 JUMPI POP RETURN JUMPDEST DUP4 SWAP1 CALLVALUE PUSH2 0x114 JUMPI DUP2 PUSH1 0x3 NOT CALLDATASIZE ADD SLT PUSH2 0x114 JUMPI MLOAD PUSH32 0x0 PUSH1 0x1 PUSH1 0x1 PUSH1 0xA0 SHL SUB AND DUP2 MSTORE PUSH1 0x20 SWAP1 RETURN JUMPDEST DUP3 DUP5 CALLVALUE PUSH2 0x1C0 JUMPI PUSH1 0x60 CALLDATASIZE PUSH1 0x3 NOT ADD SLT PUSH2 0x1C0 JUMPI PUSH1 0x3 DUP3 CALLDATALOAD LT ISZERO PUSH2 0x1C0 JUMPI PUSH1 0x24 CALLDATALOAD PUSH8 0xFFFFFFFFFFFFFFFF DUP1 DUP3 GT PUSH2 0x1B8 JUMPI CALLDATASIZE PUSH1 0x23 DUP4 ADD SLT ISZERO PUSH2 0x1B8 JUMPI DUP2 DUP5 ADD CALLDATALOAD SWAP1 DUP2 GT PUSH2 0x1B8 JUMPI CALLDATASIZE SWAP2 ADD PUSH1 0x24 ADD GT PUSH2 0x1C0 JUMPI POP PUSH1 0x20 PUSH1 0x64 SWAP3 PUSH2 0x538 PUSH2 0x7F5 JUMP JUMPDEST MLOAD PUSH3 0x461BCD PUSH1 0xE5 SHL DUP2 MSTORE SWAP2 DUP3 ADD MSTORE PUSH1 0xD PUSH1 0x24 DUP3 ADD MSTORE PUSH13 0x6D757374206F76657272696465 PUSH1 0x98 SHL PUSH1 0x44 DUP3 ADD MSTORE REVERT JUMPDEST DUP4 SWAP1 CALLVALUE PUSH2 0x114 JUMPI DUP2 PUSH1 0x3 NOT CALLDATASIZE ADD SLT PUSH2 0x114 JUMPI SWAP1 SLOAD SWAP1 MLOAD PUSH1 0x1 PUSH1 0x1 PUSH1 0xA0 SHL SUB SWAP1 SWAP2 AND DUP2 MSTORE PUSH1 0x20 SWAP1 RETURN JUMPDEST DUP4 SWAP1 CALLVALUE PUSH2 0x114 JUMPI DUP2 PUSH1 0x3 NOT CALLDATASIZE ADD SLT PUSH2 0x114 JUMPI PUSH1 0x20 SWAP1 MLOAD PUSH2 0x3A98 DUP2 MSTORE RETURN JUMPDEST DUP4 CALLVALUE PUSH2 0x1C0 JUMPI DUP1 PUSH1 0x3 NOT CALLDATASIZE ADD SLT PUSH2 0x1C0 JUMPI PUSH2 0x5C3 PUSH2 0x7C9 JUMP JUMPDEST PUSH1 0x0 DUP1 SLOAD PUSH1 0x1 PUSH1 0x1 PUSH1 0xA0 SHL SUB NOT DUP2 AND DUP3 SSTORE PUSH1 0x1 PUSH1 0x1 PUSH1 0xA0 SHL SUB AND PUSH32 0x8BE0079C531659141344CD1FD0A4F28419497F9722A3DAAFE3B4186F6B6457E0 DUP3 DUP1 LOG3 DUP1 RETURN JUMPDEST DUP4 SWAP1 CALLVALUE PUSH2 0x114 JUMPI DUP2 PUSH1 0x3 NOT CALLDATASIZE ADD SLT PUSH2 0x114 JUMPI PUSH1 0x1 SLOAD SWAP1 MLOAD PUSH1 0x1 PUSH1 0x1 PUSH1 0xA0 SHL SUB SWAP1 SWAP2 AND DUP2 MSTORE PUSH1 0x20 SWAP1 RETURN JUMPDEST SWAP3 SWAP2 POP CALLVALUE PUSH2 0x2E5 JUMPI DUP1 PUSH1 0x3 NOT CALLDATASIZE ADD SLT PUSH2 0x2E5 JUMPI PUSH2 0x648 PUSH2 0x746 JUMP JUMPDEST PUSH2 0x650 PUSH2 0x7C9 JUMP JUMPDEST PUSH1 0x1 PUSH1 0x1 PUSH1 0xA0 SHL SUB PUSH32 0x0 DUP2 AND DUP1 EXTCODESIZE ISZERO PUSH2 0x41E JUMPI DUP6 SWAP3 DUP4 PUSH1 0x44 SWAP3 DUP7 MLOAD SWAP8 DUP9 SWAP6 DUP7 SWAP5 PUSH4 0x40B850F PUSH1 0xE3 SHL DUP7 MSTORE AND SWAP1 DUP5 ADD MSTORE PUSH1 0x24 CALLDATALOAD PUSH1 0x24 DUP5 ADD MSTORE GAS CALL SWAP1 DUP2 ISZERO PUSH2 0x2D7 JUMPI POP PUSH2 0x2C7 JUMPI POP RETURN JUMPDEST SWAP1 POP PUSH1 0x20 CALLDATASIZE PUSH1 0x3 NOT ADD SLT PUSH2 0x1B8 JUMPI DUP3 DUP3 CALLDATALOAD PUSH4 0xFFFFFFFF DUP2 AND DUP1 SWAP2 SUB PUSH2 0x114 JUMPI PUSH2 0x6DE PUSH2 0x7C9 JUMP JUMPDEST PUSH32 0x0 PUSH1 0x1 PUSH1 0x1 PUSH1 0xA0 SHL SUB AND SWAP4 DUP5 EXTCODESIZE ISZERO PUSH2 0x1B8 JUMPI PUSH1 0x24 SWAP1 DUP5 MLOAD SWAP6 DUP7 SWAP4 DUP5 SWAP3 PUSH3 0x1CB65B PUSH1 0xE5 SHL DUP5 MSTORE DUP4 ADD MSTORE CALLVALUE SWAP1 GAS CALL SWAP1 DUP2 ISZERO PUSH2 0x2D7 JUMPI POP PUSH2 0x73A JUMPI POP DUP1 RETURN JUMPDEST PUSH2 0x743 SWAP1 PUSH2 0x761 JUMP JUMPDEST DUP1 RETURN JUMPDEST PUSH1 0x4 CALLDATALOAD SWAP1 PUSH1 0x1 PUSH1 0x1 PUSH1 0xA0 SHL SUB DUP3 AND DUP3 SUB PUSH2 0x75C JUMPI JUMP JUMPDEST PUSH1 0x0 DUP1 REVERT JUMPDEST PUSH8 0xFFFFFFFFFFFFFFFF DUP2 GT PUSH2 0x775 JUMPI PUSH1 0x40 MSTORE JUMP JUMPDEST PUSH4 0x4E487B71 PUSH1 0xE0 SHL PUSH1 0x0 MSTORE PUSH1 0x41 PUSH1 0x4 MSTORE PUSH1 0x24 PUSH1 0x0 REVERT JUMPDEST PUSH1 0x20 DUP2 ADD SWAP1 DUP2 LT PUSH8 0xFFFFFFFFFFFFFFFF DUP3 GT OR PUSH2 0x775 JUMPI PUSH1 0x40 MSTORE JUMP JUMPDEST SWAP1 PUSH1 0x1F DUP1 NOT SWAP2 ADD AND DUP2 ADD SWAP1 DUP2 LT PUSH8 0xFFFFFFFFFFFFFFFF DUP3 GT OR PUSH2 0x775 JUMPI PUSH1 0x40 MSTORE JUMP JUMPDEST PUSH1 0x0 SLOAD PUSH1 0x1 PUSH1 0x1 PUSH1 0xA0 SHL SUB AND CALLER SUB PUSH2 0x7DD JUMPI JUMP JUMPDEST PUSH1 0x40 MLOAD PUSH4 0x118CDAA7 PUSH1 0xE0 SHL DUP2 MSTORE CALLER PUSH1 0x4 DUP3 ADD MSTORE PUSH1 0x24 SWAP1 REVERT JUMPDEST PUSH32 0x0 PUSH1 0x1 PUSH1 0x1 PUSH1 0xA0 SHL SUB AND CALLER SUB PUSH2 0x827 JUMPI JUMP JUMPDEST PUSH1 0x40 MLOAD PUSH3 0x461BCD PUSH1 0xE5 SHL DUP2 MSTORE PUSH1 0x20 PUSH1 0x4 DUP3 ADD MSTORE PUSH1 0x15 PUSH1 0x24 DUP3 ADD MSTORE PUSH21 0x14D95B99195C881B9BDD08115B9D1C9E541BDA5B9D PUSH1 0x5A SHL PUSH1 0x44 DUP3 ADD MSTORE PUSH1 0x64 SWAP1 REVERT JUMPDEST SWAP1 CALLDATALOAD SWAP1 PUSH1 0x1E NOT DUP2 CALLDATASIZE SUB ADD DUP3 SLT ISZERO PUSH2 0x75C JUMPI ADD DUP1 CALLDATALOAD SWAP1 PUSH8 0xFFFFFFFFFFFFFFFF DUP3 GT PUSH2 0x75C JUMPI PUSH1 0x20 ADD SWAP2 DUP2 CALLDATASIZE SUB DUP4 SGT PUSH2 0x75C JUMPI JUMP JUMPDEST PUSH2 0x120 DUP2 ADD SWAP3 SWAP2 PUSH1 0x85 PUSH2 0x8AA DUP6 DUP5 PUSH2 0x864 JUMP JUMPDEST SWAP1 POP LT PUSH2 0xA13 JUMPI PUSH2 0x8BB DUP5 DUP4 PUSH2 0x864 JUMP JUMPDEST PUSH1 0x1A GT PUSH2 0x75C JUMPI PUSH1 0x14 ADD CALLDATALOAD SWAP4 PUSH1 0x1 PUSH1 0x1 PUSH1 0xD0 SHL SUB NOT PUSH2 0x8DA DUP3 DUP6 PUSH2 0x864 JUMP JUMPDEST SWAP3 PUSH1 0x20 SWAP4 DUP5 GT PUSH2 0x75C JUMPI DUP3 PUSH1 0x1A PUSH2 0x8F4 SWAP4 ADD CALLDATALOAD AND SWAP6 PUSH2 0x864 JUMP JUMPDEST SWAP4 SWAP1 SWAP3 DUP5 DUP2 GT PUSH2 0x75C JUMPI PUSH1 0x1F NOT SWAP3 PUSH8 0xFFFFFFFFFFFFFFFF SWAP1 DUP7 DUP6 ADD DUP3 DUP2 GT PUSH2 0x775 JUMPI PUSH1 0x40 SWAP7 PUSH2 0x92D DUP6 DUP10 MLOAD SWAP9 PUSH1 0x0 NOT DUP13 ADD AND ADD DUP9 PUSH2 0x7A7 JUMP JUMPDEST DUP2 DUP8 MSTORE CALLDATASIZE DUP10 DUP3 ADD GT PUSH2 0x75C JUMPI DUP5 ADD DUP5 DUP8 ADD CALLDATACOPY PUSH1 0x0 DUP1 SWAP8 DUP7 ADD MSTORE DUP6 MLOAD SWAP3 DUP4 ADD SWAP4 DUP5 MSTORE DUP10 AND DUP6 DUP4 ADD MSTORE DUP7 PUSH1 0x46 DUP4 ADD MSTORE PUSH1 0x2C DUP3 MSTORE PUSH1 0x60 DUP3 ADD SWAP1 DUP3 DUP3 LT SWAP1 DUP3 GT OR PUSH2 0x9FF JUMPI DUP5 MSTORE MLOAD SWAP1 KECCAK256 PUSH32 0x19457468657265756D205369676E6564204D6573736167653A0A333200000000 DUP5 MSTORE PUSH1 0x1C MSTORE PUSH1 0x3C DUP4 KECCAK256 PUSH2 0x9B3 SWAP2 PUSH2 0x9AA SWAP2 PUSH2 0xA2D JUMP JUMPDEST SWAP1 SWAP3 SWAP2 SWAP3 PUSH2 0xA69 JUMP JUMPDEST PUSH1 0x1 SLOAD PUSH1 0x1 PUSH1 0x1 PUSH1 0xA0 SHL SUB SWAP1 DUP2 AND SWAP2 AND SUB PUSH2 0x9E8 JUMPI MLOAD SWAP1 PUSH2 0x9D3 DUP3 PUSH2 0x78B JUMP JUMPDEST DUP2 MSTORE SWAP3 PUSH1 0x30 SHR PUSH6 0xFFFFFFFFFFFF PUSH1 0xA0 SHL AND OR SWAP1 JUMP JUMPDEST MLOAD SWAP3 SWAP4 POP SWAP1 POP PUSH2 0x9F7 DUP3 PUSH2 0x78B JUMP JUMPDEST DUP2 MSTORE SWAP1 PUSH1 0x1 SWAP1 JUMP JUMPDEST PUSH4 0x4E487B71 PUSH1 0xE0 SHL DUP7 MSTORE PUSH1 0x41 PUSH1 0x4 MSTORE PUSH1 0x24 DUP7 REVERT JUMPDEST POP POP SWAP1 POP PUSH1 0x40 MLOAD PUSH2 0xA23 DUP2 PUSH2 0x78B JUMP JUMPDEST PUSH1 0x0 DUP2 MSTORE SWAP1 PUSH1 0x1 SWAP1 JUMP JUMPDEST DUP2 MLOAD SWAP2 SWAP1 PUSH1 0x41 DUP4 SUB PUSH2 0xA5E JUMPI PUSH2 0xA57 SWAP3 POP PUSH1 0x20 DUP3 ADD MLOAD SWAP1 PUSH1 0x60 PUSH1 0x40 DUP5 ADD MLOAD SWAP4 ADD MLOAD PUSH1 0x0 BYTE SWAP1 PUSH2 0xAEE JUMP JUMPDEST SWAP2 SWAP3 SWAP1 SWAP2 SWAP1 JUMP JUMPDEST POP POP PUSH1 0x0 SWAP2 PUSH1 0x2 SWAP2 SWAP1 JUMP JUMPDEST PUSH1 0x4 DUP2 LT ISZERO PUSH2 0xAD8 JUMPI DUP1 PUSH2 0xA7B JUMPI POP POP JUMP JUMPDEST PUSH1 0x1 DUP2 SUB PUSH2 0xA95 JUMPI PUSH1 0x40 MLOAD PUSH4 0xF645EEDF PUSH1 0xE0 SHL DUP2 MSTORE PUSH1 0x4 SWAP1 REVERT JUMPDEST PUSH1 0x2 DUP2 SUB PUSH2 0xAB6 JUMPI PUSH1 0x40 MLOAD PUSH4 0xFCE698F7 PUSH1 0xE0 SHL DUP2 MSTORE PUSH1 0x4 DUP2 ADD DUP4 SWAP1 MSTORE PUSH1 0x24 SWAP1 REVERT JUMPDEST PUSH1 0x3 EQ PUSH2 0xAC0 JUMPI POP JUMP JUMPDEST PUSH1 0x24 SWAP1 PUSH1 0x40 MLOAD SWAP1 PUSH4 0x35E2F383 PUSH1 0xE2 SHL DUP3 MSTORE PUSH1 0x4 DUP3 ADD MSTORE REVERT JUMPDEST PUSH4 0x4E487B71 PUSH1 0xE0 SHL PUSH1 0x0 MSTORE PUSH1 0x21 PUSH1 0x4 MSTORE PUSH1 0x24 PUSH1 0x0 REVERT JUMPDEST SWAP2 SWAP1 PUSH32 0x7FFFFFFFFFFFFFFFFFFFFFFFFFFFFFFF5D576E7357A4501DDFE92F46681B20A0 DUP5 GT PUSH2 0xB72 JUMPI SWAP3 PUSH1 0x20 SWAP3 SWAP2 PUSH1 0xFF PUSH1 0x80 SWAP6 PUSH1 0x40 MLOAD SWAP5 DUP6 MSTORE AND DUP5 DUP5 ADD MSTORE PUSH1 0x40 DUP4 ADD MSTORE PUSH1 0x60 DUP3 ADD MSTORE PUSH1 0x0 SWAP3 DUP4 SWAP2 DUP3 DUP1 MSTORE PUSH1 0x1 GAS STATICCALL ISZERO PUSH2 0xB66 JUMPI DUP1 MLOAD PUSH1 0x1 PUSH1 0x1 PUSH1 0xA0 SHL SUB DUP2 AND ISZERO PUSH2 0xB5D JUMPI SWAP2 DUP2 SWAP1 JUMP JUMPDEST POP DUP1 SWAP2 PUSH1 0x1 SWAP2 SWAP1 JUMP JUMPDEST PUSH1 0x40 MLOAD SWAP1 RETURNDATASIZE SWAP1 DUP3 RETURNDATACOPY RETURNDATASIZE SWAP1 REVERT JUMPDEST POP POP POP PUSH1 0x0 SWAP2 PUSH1 0x3 SWAP2 SWAP1 JUMP INVALID LOG2 PUSH5 0x6970667358 0x22 SLT KECCAK256 0xE0 0xDC 0x25 0x24 PUSH3 0x8F0760 OR CODECOPY GAS ADDRESS 0xB3 0xDF 0xD3 0xF JUMPI BALANCE 0xAD 0xB4 EXTCODECOPY DUP15 CALLCODE SIGNEXTEND PC XOR 0xCB CODECOPY PUSH32 0x5D4E5464736F6C63430008180033000000000000000000000000000000000000 "},"methodIdentifiers":{"COST_OF_POST()":"796d4371","addStake(uint32)":"0396cb60","deposit()":"d0e30db0","entryPoint()":"b0d691fe","getDeposit()":"c399ec88","owner()":"8da5cb5b","postOp(uint8,bytes,uint256)":"a9a23409","renounceOwnership()":"715018a6","setVerifyingSigner(address)":"f5cba98c","transferOwnership(address)":"f2fde38b","unlockStake()":"bb9fe6bf","validatePaymasterUserOp((address,uint256,bytes,bytes,uint256,uint256,uint256,uint256,uint256,bytes,bytes),bytes32,uint256)":"f465c77e","verifyingSigner()":"23d9ac9b","withdrawStake(address)":"c23a5cea","withdrawTo(address,uint256)":"205c2878"}}}}}