{"contracts/XFactory.sol":{"XFactory":{"abi":[{"inputs":[{"internalType":"contract IEntryPoint","name":"_entryPoint","type":"address"}],"stateMutability":"nonpayable","type":"constructor"},{"inputs":[],"name":"Create2EmptyBytecode","type":"error"},{"inputs":[],"name":"FailedDeployment","type":"error"},{"inputs":[{"internalType":"uint256","name":"balance","type":"uint256"},{"internalType":"uint256","name":"needed","type":"uint256"}],"name":"InsufficientBalance","type":"error"},{"anonymous":false,"inputs":[{"indexed":true,"internalType":"address","name":"account","type":"address"},{"indexed":true,"internalType":"address","name":"owner","type":"address"}],"name":"AccountCreated","type":"event"},{"inputs":[],"name":"accountImplementation","outputs":[{"internalType":"contract XAccount","name":"","type":"address"}],"stateMutability":"view","type":"function"},{"inputs":[{"internalType":"address","name":"owner","type":"address"},{"internalType":"uint256","name":"salt","type":"uint256"}],"name":"createAccount","outputs":[{"internalType":"contract XAccount","name":"ret","type":"address"}],"stateMutability":"nonpayable","type":"function"},{"inputs":[{"internalType":"address","name":"owner","type":"address"},{"internalType":"uint256","name":"salt","type":"uint256"}],"name":"getAddress","outputs":[{"internalType":"address","name":"","type":"address"}],"stateMutability":"view","type":"function"}],"evm":{"bytecode":{"linkReferences":{},"object":"60a0346100c4576001600160401b0390601f61179138819003918201601f1916830191848311848410176100ae578084926020946040528339810103126100c457516001600160a01b038116908190036100c4576040519161107d90818401908111848210176100ae576020928492610714843981520301906000f080156100a25760805260405161064a90816100ca8239608051818181609e01526102ba0152f35b6040513d6000823e3d90fd5b634e487b7160e01b600052604160045260246000fd5b600080fdfe608080604052600436101561001357600080fd5b600090813560e01c90816311464fbe1461008a575080635fbfb9cf1461007057638cb84e181461004257600080fd5b3461006d57602061005b610055366100d1565b906101ad565b6040516001600160a01b039091168152f35b80fd5b503461006d57602061005b610084366100d1565b906100fc565b9050346100cd57816003193601126100cd577f00000000000000000000000000000000000000000000000000000000000000006001600160a01b03168152602090f35b5080fd5b60409060031901126100f7576004356001600160a01b03811681036100f7579060243590565b600080fd5b919061010881846101ad565b803b61019f575061011883610242565b80511561018d576020815191016000f53d1519811516610181576001600160a01b0390811690811561016f57819316907fac631f3001b55ea1509cf3d7e74898f85392a61a76e8149181ae1259622dabc8600080a3565b60405163b06ebf3d60e01b8152600490fd5b6040513d6000823e3d90fd5b604051631328927760e21b8152600490fd5b6001600160a01b0316925050565b906101b9600b92610242565b602081519101209060405191604083015260208201523081520160ff8153605590206001600160a01b031690565b90601f8019910116810190811067ffffffffffffffff82111761020957604052565b634e487b7160e01b600052604160045260246000fd5b60005b8381106102325750506000910152565b8181015183820152602001610222565b6102d3906020604051610257828501826101e7565b83815281810193610342853960018060a01b0360405193818486019163189acdbd60e31b835216602486015260248552606085019085821067ffffffffffffffff8311176102095761032396610311608061033e986103329486604052828201977f0000000000000000000000000000000000000000000000000000000000000000168852604060a08301526102fa825180928160c086015260e085019061021f565b601f801991011681010360608101865201846101e7565b6040519788955180928888019061021f565b8401915180938684019061021f565b010380845201826101e7565b9056fe60806040526102d38038038061001481610194565b92833981019060408183031261018f5780516001600160a01b03811680820361018f5760208381015190936001600160401b03821161018f570184601f8201121561018f5780519061006d610068836101cf565b610194565b9582875285838301011161018f57849060005b83811061017b57505060009186010152813b15610163577f360894a13ba1a3210667c828492db98dca3e2076cc3735a920a3ca505d382bbc80546001600160a01b03191682179055604051907fbc7cd75a20ee27fd9adebab32041f755214dbc6bffa90cc0225b39da2e5c2d3b600080a28351156101455750600080848461012c96519101845af4903d1561013c573d61011c610068826101cf565b908152600081943d92013e6101ea565b505b6040516085908161024e8239f35b606092506101ea565b9250505034610154575061012e565b63b398979f60e01b8152600490fd5b60249060405190634c9c8ce360e01b82526004820152fd5b818101830151888201840152869201610080565b600080fd5b6040519190601f01601f191682016001600160401b038111838210176101b957604052565b634e487b7160e01b600052604160045260246000fd5b6001600160401b0381116101b957601f01601f191660200190565b9061021157508051156101ff57602081519101fd5b60405163d6bda27560e01b8152600490fd5b81511580610244575b610222575090565b604051639996b31560e01b81526001600160a01b039091166004820152602490fd5b50803b1561021a56fe60806040527f360894a13ba1a3210667c828492db98dca3e2076cc3735a920a3ca505d382bbc54600090819081906001600160a01b0316368280378136915af43d82803e15604b573d90f35b3d90fdfea2646970667358221220d5689bb9bdf453c58b2985b84bdedcbe8410e4ee1473f34ac7359ac72b7aa41d64736f6c63430008180033a2646970667358221220d44e834922cae8c243bc3562ee6b5e80caea0e4edd02e412ba16245c0facc9f564736f6c6343000818003360c03461011f576001600160401b0390601f61107d38819003918201601f1916830191848311848410176101245780849260209460405283398101031261011f57516001600160a01b038116810361011f573060805260a0527ff0c57e16840df040f15088dc2f81fe391c3923bec73e23a9662efc9c229c6a009081549060ff8260401c1661010d5780808316036100c8575b604051610f42908161013b82396080518181816104bc01526105f5015260a051818181610709015281816109420152610ae70152f35b6001600160401b031990911681179091556040519081527fc7f505b2f371ae2175ee4913f4499e1f2633a7b5936321eed1cdaeb6115181d290602090a1388080610092565b60405163f92ee8a960e01b8152600490fd5b600080fd5b634e487b7160e01b600052604160045260246000fdfe6080604052600436101561001b575b361561001957600080fd5b005b60003560e01c806315e58e12146100eb5780631d266200146100e65780632a819728146100e15780633a871cdd146100dc57806347e1da2a146100d75780634f1ef286146100d257806352d1902d146100cd5780638da5cb5b146100c8578063ad3cb1cc146100c3578063b0d691fe146100be578063b61d27f6146100b9578063c4d66de8146100b45763d087d2880361000e5761090e565b61079e565b610738565b6106f3565b610676565b61064d565b6105e2565b610468565b610290565b6101d8565b61017b565b610121565b3461011c57602036600319011261011c576004356000526001602052602060ff604060002054166040519015158152f35b600080fd5b3461011c57602036600319011261011c5760043561013d610a6d565b6000818152600160205260408120805460ff19169055907fe0862975ac517b0478d308012afabc4bc37c23874a18144d7f2dfb852ff95c2c8280a280f35b3461011c57602036600319011261011c57600435610197610a6d565b600090808252600160205260408220600160ff198254161790557f67fc71ab96fe3fa3c6f78e9a00e635d591b7333ce611c0380bc577aac702243b8280a280f35b3461011c5760031960603682011261011c576004359067ffffffffffffffff821161011c5761016090823603011261011c57610241906102296044359161021d610ae5565b60243590600401610b5c565b9080610245575b506040519081529081906020820190565b0390f35b600080808093338219f150610258610bd0565b5038610230565b9181601f8401121561011c5782359167ffffffffffffffff831161011c576020808501948460051b01011161011c57565b3461011c57606036600319011261011c5767ffffffffffffffff60043581811161011c576102c290369060040161025f565b9060243583811161011c576102db90369060040161025f565b9360443590811161011c576102f490369060040161025f565b926102fd610ae5565b858514806103a2575b1561035d5760005b85811061031757005b8061035761033061032b6001948a876109de565b6109f3565b61033b838b896109de565b3561035161034a858b8a610a33565b3691610431565b91610c00565b0161030e565b60405162461bcd60e51b815260206004820152601960248201527f584163636f756e743a206c656e677468206d69736d61746368000000000000006044820152606490fd5b50838614610306565b6001600160a01b0381160361011c57565b634e487b7160e01b600052604160045260246000fd5b6040810190811067ffffffffffffffff8211176103ee57604052565b6103bc565b90601f8019910116810190811067ffffffffffffffff8211176103ee57604052565b67ffffffffffffffff81116103ee57601f01601f191660200190565b92919261043d82610415565b9161044b60405193846103f3565b82948184528183011161011c578281602093846000960137010152565b604036600319011261011c576004803590610482826103ab565b60243567ffffffffffffffff811161011c573660238201121561011c576104b29036906024818501359101610431565b6001600160a01b037f000000000000000000000000000000000000000000000000000000000000000081163081149081156105c6575b506105b55790602083926104fa610a6d565b6040516352d1902d60e01b8152938491829088165afa60009281610584575b50610547575050604051634c9c8ce360e01b81526001600160a01b0390921690820190815281906020010390fd5b8383600080516020610ecd8339815191528403610568576100198383610c37565b604051632a87526960e21b815290810184815281906020010390fd5b6105a791935060203d6020116105ae575b61059f81836103f3565b810190610c28565b9138610519565b503d610595565b60405163703e46dd60e11b81528390fd5b905081600080516020610ecd83398151915254161415386104e8565b3461011c57600036600319011261011c577f00000000000000000000000000000000000000000000000000000000000000006001600160a01b0316300361063b576020604051600080516020610ecd8339815191528152f35b60405163703e46dd60e11b8152600490fd5b3461011c57600036600319011261011c576000546040516001600160a01b039091168152602090f35b3461011c57600036600319011261011c576040805190610695826103d2565b60058252602090640352e302e360dc1b6020840152604051916020835283519182602085015260005b8381106106e05784604081866000838284010152601f80199101168101030190f35b85810183015185820183015282016106be565b3461011c57600036600319011261011c576040517f00000000000000000000000000000000000000000000000000000000000000006001600160a01b03168152602090f35b3461011c57606036600319011261011c57600435610755816103ab565b6044359067ffffffffffffffff9081831161011c573660238401121561011c57826004013591821161011c57366024838501011161011c57602461001993019060243590610a4e565b3461011c57602036600319011261011c576004356107bb816103ab565b600080516020610eed833981519152549067ffffffffffffffff60ff8360401c1615921680159081610906575b60011490816108fc575b1590816108f3575b506108e157600080516020610eed833981519152805467ffffffffffffffff1916600117905561084b908261089a5760018060a01b03166bffffffffffffffffffffffff60a01b6000541617600055565b61085157005b600080516020610eed833981519152805460ff60401b19169055604051600181527fc7f505b2f371ae2175ee4913f4499e1f2633a7b5936321eed1cdaeb6115181d290602090a1005b600080516020610eed833981519152805460ff60401b19166801000000000000000017905560018060a01b03166bffffffffffffffffffffffff60a01b6000541617600055565b60405163f92ee8a960e01b8152600490fd5b905015386107fa565b303b1591506107f2565b8391506107e8565b3461011c576000806003193601126109c557604051631aab3f0d60e11b8152306004820152602481018290526020816044817f00000000000000000000000000000000000000000000000000000000000000006001600160a01b03165afa9081156109c0578291610985575b604051828152602090f35b90506020813d6020116109b8575b816109a0602093836103f3565b810103126109b4576102419150513861097a565b5080fd5b3d9150610993565b610a61565b80fd5b634e487b7160e01b600052603260045260246000fd5b91908110156109ee5760051b0190565b6109c8565b356109fd816103ab565b90565b903590601e198136030182121561011c570180359067ffffffffffffffff821161011c5760200191813603831361011c57565b908210156109ee57610a4a9160051b810190610a00565b9091565b9161035190610a5f9461034a610ae5565b565b6040513d6000823e3d90fd5b6000546001600160a01b031633148015610adc575b15610a8957565b60405162461bcd60e51b815260206004820152602560248201527f584163636f756e743a2063616c6c6572206973206e6f74206f776e6572206f726044820152641039b2b63360d91b6064820152608490fd5b50303314610a82565b7f00000000000000000000000000000000000000000000000000000000000000006001600160a01b03163303610b1757565b60405162461bcd60e51b815260206004820152601c60248201527f6163636f756e743a206e6f742066726f6d20456e747279506f696e74000000006044820152606490fd5b610ba890610bb1927f19457468657265756d205369676e6564204d6573736167653a0a333200000000600052601c52610ba261034a603c60002092610140810190610a00565b90610cde565b90929192610d3a565b6000546001600160a01b03908116911603610bcb57600090565b600190565b3d15610bfb573d90610be182610415565b91610bef60405193846103f3565b82523d6000602084013e565b606090565b916000928392602083519301915af1610c17610bd0565b9015610c205750565b602081519101fd5b9081602091031261011c575190565b90813b15610cbd57600080516020610ecd83398151915280546001600160a01b0319166001600160a01b0384169081179091557fbc7cd75a20ee27fd9adebab32041f755214dbc6bffa90cc0225b39da2e5c2d3b600080a2805115610ca257610c9f91610dc7565b50565b505034610cab57565b60405163b398979f60e01b8152600490fd5b604051634c9c8ce360e01b81526001600160a01b0383166004820152602490fd5b8151919060418303610d0f57610d0892506020820151906060604084015193015160001a90610de5565b9192909190565b505060009160029190565b60041115610d2457565b634e487b7160e01b600052602160045260246000fd5b610d4381610d1a565b80610d4c575050565b610d5581610d1a565b60018103610d6f5760405163f645eedf60e01b8152600490fd5b610d7881610d1a565b60028103610d995760405163fce698f760e01b815260048101839052602490fd5b80610da5600392610d1a565b14610dad5750565b6040516335e2f38360e21b81526004810191909152602490fd5b6000806109fd93602081519101845af4610ddf610bd0565b91610e69565b91907f7fffffffffffffffffffffffffffffff5d576e7357a4501ddfe92f46681b20a08411610e5d57926020929160ff608095604051948552168484015260408301526060820152600092839182805260015afa156109c05780516001600160a01b03811615610e5457918190565b50809160019190565b50505060009160039190565b90610e905750805115610e7e57602081519101fd5b60405163d6bda27560e01b8152600490fd5b81511580610ec3575b610ea1575090565b604051639996b31560e01b81526001600160a01b039091166004820152602490fd5b50803b15610e9956fe360894a13ba1a3210667c828492db98dca3e2076cc3735a920a3ca505d382bbcf0c57e16840df040f15088dc2f81fe391c3923bec73e23a9662efc9c229c6a00a26469706673582212203f6b8e98e71801e4629de9398178f0a62c2efb5c845e2497de327d393e37613a64736f6c63430008180033","opcodes":"PUSH1 0xA0 CALLVALUE PUSH2 0xC4 JUMPI PUSH1 0x1 PUSH1 0x1 PUSH1 0x40 SHL SUB SWAP1 PUSH1 0x1F PUSH2 0x1791 CODESIZE DUP2 SWAP1 SUB SWAP2 DUP3 ADD PUSH1 0x1F NOT AND DUP4 ADD SWAP2 DUP5 DUP4 GT DUP5 DUP5 LT OR PUSH2 0xAE JUMPI DUP1 DUP5 SWAP3 PUSH1 0x20 SWAP5 PUSH1 0x40 MSTORE DUP4 CODECOPY DUP2 ADD SUB SLT PUSH2 0xC4 JUMPI MLOAD PUSH1 0x1 PUSH1 0x1 PUSH1 0xA0 SHL SUB DUP2 AND SWAP1 DUP2 SWAP1 SUB PUSH2 0xC4 JUMPI PUSH1 0x40 MLOAD SWAP2 PUSH2 0x107D SWAP1 DUP2 DUP5 ADD SWAP1 DUP2 GT DUP5 DUP3 LT OR PUSH2 0xAE JUMPI PUSH1 0x20 SWAP3 DUP5 SWAP3 PUSH2 0x714 DUP5 CODECOPY DUP2 MSTORE SUB ADD SWAP1 PUSH1 0x0 CREATE DUP1 ISZERO PUSH2 0xA2 JUMPI PUSH1 0x80 MSTORE PUSH1 0x40 MLOAD PUSH2 0x64A SWAP1 DUP2 PUSH2 0xCA DUP3 CODECOPY PUSH1 0x80 MLOAD DUP2 DUP2 DUP2 PUSH1 0x9E ADD MSTORE PUSH2 0x2BA ADD MSTORE RETURN JUMPDEST PUSH1 0x40 MLOAD RETURNDATASIZE PUSH1 0x0 DUP3 RETURNDATACOPY RETURNDATASIZE SWAP1 REVERT JUMPDEST PUSH4 0x4E487B71 PUSH1 0xE0 SHL PUSH1 0x0 MSTORE PUSH1 0x41 PUSH1 0x4 MSTORE PUSH1 0x24 PUSH1 0x0 REVERT JUMPDEST PUSH1 0x0 DUP1 REVERT INVALID PUSH1 0x80 DUP1 PUSH1 0x40 MSTORE PUSH1 0x4 CALLDATASIZE LT ISZERO PUSH2 0x13 JUMPI PUSH1 0x0 DUP1 REVERT JUMPDEST PUSH1 0x0 SWAP1 DUP2 CALLDATALOAD PUSH1 0xE0 SHR SWAP1 DUP2 PUSH4 0x11464FBE EQ PUSH2 0x8A JUMPI POP DUP1 PUSH4 0x5FBFB9CF EQ PUSH2 0x70 JUMPI PUSH4 0x8CB84E18 EQ PUSH2 0x42 JUMPI PUSH1 0x0 DUP1 REVERT JUMPDEST CALLVALUE PUSH2 0x6D JUMPI PUSH1 0x20 PUSH2 0x5B PUSH2 0x55 CALLDATASIZE PUSH2 0xD1 JUMP JUMPDEST SWAP1 PUSH2 0x1AD JUMP JUMPDEST PUSH1 0x40 MLOAD PUSH1 0x1 PUSH1 0x1 PUSH1 0xA0 SHL SUB SWAP1 SWAP2 AND DUP2 MSTORE RETURN JUMPDEST DUP1 REVERT JUMPDEST POP CALLVALUE PUSH2 0x6D JUMPI PUSH1 0x20 PUSH2 0x5B PUSH2 0x84 CALLDATASIZE PUSH2 0xD1 JUMP JUMPDEST SWAP1 PUSH2 0xFC JUMP JUMPDEST SWAP1 POP CALLVALUE PUSH2 0xCD JUMPI DUP2 PUSH1 0x3 NOT CALLDATASIZE ADD SLT PUSH2 0xCD JUMPI PUSH32 0x0 PUSH1 0x1 PUSH1 0x1 PUSH1 0xA0 SHL SUB AND DUP2 MSTORE PUSH1 0x20 SWAP1 RETURN JUMPDEST POP DUP1 REVERT JUMPDEST PUSH1 0x40 SWAP1 PUSH1 0x3 NOT ADD SLT PUSH2 0xF7 JUMPI PUSH1 0x4 CALLDATALOAD PUSH1 0x1 PUSH1 0x1 PUSH1 0xA0 SHL SUB DUP2 AND DUP2 SUB PUSH2 0xF7 JUMPI SWAP1 PUSH1 0x24 CALLDATALOAD SWAP1 JUMP JUMPDEST PUSH1 0x0 DUP1 REVERT JUMPDEST SWAP2 SWAP1 PUSH2 0x108 DUP2 DUP5 PUSH2 0x1AD JUMP JUMPDEST DUP1 EXTCODESIZE PUSH2 0x19F JUMPI POP PUSH2 0x118 DUP4 PUSH2 0x242 JUMP JUMPDEST DUP1 MLOAD ISZERO PUSH2 0x18D JUMPI PUSH1 0x20 DUP2 MLOAD SWAP2 ADD PUSH1 0x0 CREATE2 RETURNDATASIZE ISZERO NOT DUP2 ISZERO AND PUSH2 0x181 JUMPI PUSH1 0x1 PUSH1 0x1 PUSH1 0xA0 SHL SUB SWAP1 DUP2 AND SWAP1 DUP2 ISZERO PUSH2 0x16F JUMPI DUP2 SWAP4 AND SWAP1 PUSH32 0xAC631F3001B55EA1509CF3D7E74898F85392A61A76E8149181AE1259622DABC8 PUSH1 0x0 DUP1 LOG3 JUMP JUMPDEST PUSH1 0x40 MLOAD PUSH4 0xB06EBF3D PUSH1 0xE0 SHL DUP2 MSTORE PUSH1 0x4 SWAP1 REVERT JUMPDEST PUSH1 0x40 MLOAD RETURNDATASIZE PUSH1 0x0 DUP3 RETURNDATACOPY RETURNDATASIZE SWAP1 REVERT JUMPDEST PUSH1 0x40 MLOAD PUSH4 0x13289277 PUSH1 0xE2 SHL DUP2 MSTORE PUSH1 0x4 SWAP1 REVERT JUMPDEST PUSH1 0x1 PUSH1 0x1 PUSH1 0xA0 SHL SUB AND SWAP3 POP POP JUMP JUMPDEST SWAP1 PUSH2 0x1B9 PUSH1 0xB SWAP3 PUSH2 0x242 JUMP JUMPDEST PUSH1 0x20 DUP2 MLOAD SWAP2 ADD KECCAK256 SWAP1 PUSH1 0x40 MLOAD SWAP2 PUSH1 0x40 DUP4 ADD MSTORE PUSH1 0x20 DUP3 ADD MSTORE ADDRESS DUP2 MSTORE ADD PUSH1 0xFF DUP2 MSTORE8 PUSH1 0x55 SWAP1 KECCAK256 PUSH1 0x1 PUSH1 0x1 PUSH1 0xA0 SHL SUB AND SWAP1 JUMP JUMPDEST SWAP1 PUSH1 0x1F DUP1 NOT SWAP2 ADD AND DUP2 ADD SWAP1 DUP2 LT PUSH8 0xFFFFFFFFFFFFFFFF DUP3 GT OR PUSH2 0x209 JUMPI PUSH1 0x40 MSTORE JUMP JUMPDEST PUSH4 0x4E487B71 PUSH1 0xE0 SHL PUSH1 0x0 MSTORE PUSH1 0x41 PUSH1 0x4 MSTORE PUSH1 0x24 PUSH1 0x0 REVERT JUMPDEST PUSH1 0x0 JUMPDEST DUP4 DUP2 LT PUSH2 0x232 JUMPI POP POP PUSH1 0x0 SWAP2 ADD MSTORE JUMP JUMPDEST DUP2 DUP2 ADD MLOAD DUP4 DUP3 ADD MSTORE PUSH1 0x20 ADD PUSH2 0x222 JUMP JUMPDEST PUSH2 0x2D3 SWAP1 PUSH1 0x20 PUSH1 0x40 MLOAD PUSH2 0x257 DUP3 DUP6 ADD DUP3 PUSH2 0x1E7 JUMP JUMPDEST DUP4 DUP2 MSTORE DUP2 DUP2 ADD SWAP4 PUSH2 0x342 DUP6 CODECOPY PUSH1 0x1 DUP1 PUSH1 0xA0 SHL SUB PUSH1 0x40 MLOAD SWAP4 DUP2 DUP5 DUP7 ADD SWAP2 PUSH4 0x189ACDBD PUSH1 0xE3 SHL DUP4 MSTORE AND PUSH1 0x24 DUP7 ADD MSTORE PUSH1 0x24 DUP6 MSTORE PUSH1 0x60 DUP6 ADD SWAP1 DUP6 DUP3 LT PUSH8 0xFFFFFFFFFFFFFFFF DUP4 GT OR PUSH2 0x209 JUMPI PUSH2 0x323 SWAP7 PUSH2 0x311 PUSH1 0x80 PUSH2 0x33E SWAP9 PUSH2 0x332 SWAP5 DUP7 PUSH1 0x40 MSTORE DUP3 DUP3 ADD SWAP8 PUSH32 0x0 AND DUP9 MSTORE PUSH1 0x40 PUSH1 0xA0 DUP4 ADD MSTORE PUSH2 0x2FA DUP3 MLOAD DUP1 SWAP3 DUP2 PUSH1 0xC0 DUP7 ADD MSTORE PUSH1 0xE0 DUP6 ADD SWAP1 PUSH2 0x21F JUMP JUMPDEST PUSH1 0x1F DUP1 NOT SWAP2 ADD AND DUP2 ADD SUB PUSH1 0x60 DUP2 ADD DUP7 MSTORE ADD DUP5 PUSH2 0x1E7 JUMP JUMPDEST PUSH1 0x40 MLOAD SWAP8 DUP9 SWAP6 MLOAD DUP1 SWAP3 DUP9 DUP9 ADD SWAP1 PUSH2 0x21F JUMP JUMPDEST DUP5 ADD SWAP2 MLOAD DUP1 SWAP4 DUP7 DUP5 ADD SWAP1 PUSH2 0x21F JUMP JUMPDEST ADD SUB DUP1 DUP5 MSTORE ADD DUP3 PUSH2 0x1E7 JUMP JUMPDEST SWAP1 JUMP INVALID PUSH1 0x80 PUSH1 0x40 MSTORE PUSH2 0x2D3 DUP1 CODESIZE SUB DUP1 PUSH2 0x14 DUP2 PUSH2 0x194 JUMP JUMPDEST SWAP3 DUP4 CODECOPY DUP2 ADD SWAP1 PUSH1 0x40 DUP2 DUP4 SUB SLT PUSH2 0x18F JUMPI DUP1 MLOAD PUSH1 0x1 PUSH1 0x1 PUSH1 0xA0 SHL SUB DUP2 AND DUP1 DUP3 SUB PUSH2 0x18F JUMPI PUSH1 0x20 DUP4 DUP2 ADD MLOAD SWAP1 SWAP4 PUSH1 0x1 PUSH1 0x1 PUSH1 0x40 SHL SUB DUP3 GT PUSH2 0x18F JUMPI ADD DUP5 PUSH1 0x1F DUP3 ADD SLT ISZERO PUSH2 0x18F JUMPI DUP1 MLOAD SWAP1 PUSH2 0x6D PUSH2 0x68 DUP4 PUSH2 0x1CF JUMP JUMPDEST PUSH2 0x194 JUMP JUMPDEST SWAP6 DUP3 DUP8 MSTORE DUP6 DUP4 DUP4 ADD ADD GT PUSH2 0x18F JUMPI DUP5 SWAP1 PUSH1 0x0 JUMPDEST DUP4 DUP2 LT PUSH2 0x17B JUMPI POP POP PUSH1 0x0 SWAP2 DUP7 ADD ADD MSTORE DUP2 EXTCODESIZE ISZERO PUSH2 0x163 JUMPI PUSH32 0x360894A13BA1A3210667C828492DB98DCA3E2076CC3735A920A3CA505D382BBC DUP1 SLOAD PUSH1 0x1 PUSH1 0x1 PUSH1 0xA0 SHL SUB NOT AND DUP3 OR SWAP1 SSTORE PUSH1 0x40 MLOAD SWAP1 PUSH32 0xBC7CD75A20EE27FD9ADEBAB32041F755214DBC6BFFA90CC0225B39DA2E5C2D3B PUSH1 0x0 DUP1 LOG2 DUP4 MLOAD ISZERO PUSH2 0x145 JUMPI POP PUSH1 0x0 DUP1 DUP5 DUP5 PUSH2 0x12C SWAP7 MLOAD SWAP2 ADD DUP5 GAS DELEGATECALL SWAP1 RETURNDATASIZE ISZERO PUSH2 0x13C JUMPI RETURNDATASIZE PUSH2 0x11C PUSH2 0x68 DUP3 PUSH2 0x1CF JUMP JUMPDEST SWAP1 DUP2 MSTORE PUSH1 0x0 DUP2 SWAP5 RETURNDATASIZE SWAP3 ADD RETURNDATACOPY PUSH2 0x1EA JUMP JUMPDEST POP JUMPDEST PUSH1 0x40 MLOAD PUSH1 0x85 SWAP1 DUP2 PUSH2 0x24E DUP3 CODECOPY RETURN JUMPDEST PUSH1 0x60 SWAP3 POP PUSH2 0x1EA JUMP JUMPDEST SWAP3 POP POP POP CALLVALUE PUSH2 0x154 JUMPI POP PUSH2 0x12E JUMP JUMPDEST PUSH4 0xB398979F PUSH1 0xE0 SHL DUP2 MSTORE PUSH1 0x4 SWAP1 REVERT JUMPDEST PUSH1 0x24 SWAP1 PUSH1 0x40 MLOAD SWAP1 PUSH4 0x4C9C8CE3 PUSH1 0xE0 SHL DUP3 MSTORE PUSH1 0x4 DUP3 ADD MSTORE REVERT JUMPDEST DUP2 DUP2 ADD DUP4 ADD MLOAD DUP9 DUP3 ADD DUP5 ADD MSTORE DUP7 SWAP3 ADD PUSH2 0x80 JUMP JUMPDEST PUSH1 0x0 DUP1 REVERT JUMPDEST PUSH1 0x40 MLOAD SWAP2 SWAP1 PUSH1 0x1F ADD PUSH1 0x1F NOT AND DUP3 ADD PUSH1 0x1 PUSH1 0x1 PUSH1 0x40 SHL SUB DUP2 GT DUP4 DUP3 LT OR PUSH2 0x1B9 JUMPI PUSH1 0x40 MSTORE JUMP JUMPDEST PUSH4 0x4E487B71 PUSH1 0xE0 SHL PUSH1 0x0 MSTORE PUSH1 0x41 PUSH1 0x4 MSTORE PUSH1 0x24 PUSH1 0x0 REVERT JUMPDEST PUSH1 0x1 PUSH1 0x1 PUSH1 0x40 SHL SUB DUP2 GT PUSH2 0x1B9 JUMPI PUSH1 0x1F ADD PUSH1 0x1F NOT AND PUSH1 0x20 ADD SWAP1 JUMP JUMPDEST SWAP1 PUSH2 0x211 JUMPI POP DUP1 MLOAD ISZERO PUSH2 0x1FF JUMPI PUSH1 0x20 DUP2 MLOAD SWAP2 ADD REVERT JUMPDEST PUSH1 0x40 MLOAD PUSH4 0xD6BDA275 PUSH1 0xE0 SHL DUP2 MSTORE PUSH1 0x4 SWAP1 REVERT JUMPDEST DUP2 MLOAD ISZERO DUP1 PUSH2 0x244 JUMPI JUMPDEST PUSH2 0x222 JUMPI POP SWAP1 JUMP JUMPDEST PUSH1 0x40 MLOAD PUSH4 0x9996B315 PUSH1 0xE0 SHL DUP2 MSTORE PUSH1 0x1 PUSH1 0x1 PUSH1 0xA0 SHL SUB SWAP1 SWAP2 AND PUSH1 0x4 DUP3 ADD MSTORE PUSH1 0x24 SWAP1 REVERT JUMPDEST POP DUP1 EXTCODESIZE ISZERO PUSH2 0x21A JUMP INVALID PUSH1 0x80 PUSH1 0x40 MSTORE PUSH32 0x360894A13BA1A3210667C828492DB98DCA3E2076CC3735A920A3CA505D382BBC SLOAD PUSH1 0x0 SWAP1 DUP2 SWAP1 DUP2 SWAP1 PUSH1 0x1 PUSH1 0x1 PUSH1 0xA0 SHL SUB AND CALLDATASIZE DUP3 DUP1 CALLDATACOPY DUP2 CALLDATASIZE SWAP2 GAS DELEGATECALL RETURNDATASIZE DUP3 DUP1 RETURNDATACOPY ISZERO PUSH1 0x4B JUMPI RETURNDATASIZE SWAP1 RETURN JUMPDEST RETURNDATASIZE SWAP1 REVERT INVALID LOG2 PUSH5 0x6970667358 0x22 SLT KECCAK256 0xD5 PUSH9 0x9BB9BDF453C58B2985 0xB8 0x4B 0xDE 0xDC 0xBE DUP5 LT 0xE4 0xEE EQ PUSH20 0xF34AC7359AC72B7AA41D64736F6C634300081800 CALLER LOG2 PUSH5 0x6970667358 0x22 SLT KECCAK256 0xD4 0x4E DUP4 BLOBHASH 0x22 0xCA 0xE8 0xC2 NUMBER 0xBC CALLDATALOAD PUSH3 0xEE6B5E DUP1 0xCA 0xEA 0xE 0x4E 0xDD MUL 0xE4 SLT 0xBA AND 0x24 TLOAD 0xF 0xAC 0xC9 CREATE2 PUSH5 0x736F6C6343 STOP ADDMOD XOR STOP CALLER PUSH1 0xC0 CALLVALUE PUSH2 0x11F JUMPI PUSH1 0x1 PUSH1 0x1 PUSH1 0x40 SHL SUB SWAP1 PUSH1 0x1F PUSH2 0x107D CODESIZE DUP2 SWAP1 SUB SWAP2 DUP3 ADD PUSH1 0x1F NOT AND DUP4 ADD SWAP2 DUP5 DUP4 GT DUP5 DUP5 LT OR PUSH2 0x124 JUMPI DUP1 DUP5 SWAP3 PUSH1 0x20 SWAP5 PUSH1 0x40 MSTORE DUP4 CODECOPY DUP2 ADD SUB SLT PUSH2 0x11F JUMPI MLOAD PUSH1 0x1 PUSH1 0x1 PUSH1 0xA0 SHL SUB DUP2 AND DUP2 SUB PUSH2 0x11F JUMPI ADDRESS PUSH1 0x80 MSTORE PUSH1 0xA0 MSTORE PUSH32 0xF0C57E16840DF040F15088DC2F81FE391C3923BEC73E23A9662EFC9C229C6A00 SWAP1 DUP2 SLOAD SWAP1 PUSH1 0xFF DUP3 PUSH1 0x40 SHR AND PUSH2 0x10D JUMPI DUP1 DUP1 DUP4 AND SUB PUSH2 0xC8 JUMPI JUMPDEST PUSH1 0x40 MLOAD PUSH2 0xF42 SWAP1 DUP2 PUSH2 0x13B DUP3 CODECOPY PUSH1 0x80 MLOAD DUP2 DUP2 DUP2 PUSH2 0x4BC ADD MSTORE PUSH2 0x5F5 ADD MSTORE PUSH1 0xA0 MLOAD DUP2 DUP2 DUP2 PUSH2 0x709 ADD MSTORE DUP2 DUP2 PUSH2 0x942 ADD MSTORE PUSH2 0xAE7 ADD MSTORE RETURN JUMPDEST PUSH1 0x1 PUSH1 0x1 PUSH1 0x40 SHL SUB NOT SWAP1 SWAP2 AND DUP2 OR SWAP1 SWAP2 SSTORE PUSH1 0x40 MLOAD SWAP1 DUP2 MSTORE PUSH32 0xC7F505B2F371AE2175EE4913F4499E1F2633A7B5936321EED1CDAEB6115181D2 SWAP1 PUSH1 0x20 SWAP1 LOG1 CODESIZE DUP1 DUP1 PUSH2 0x92 JUMP JUMPDEST PUSH1 0x40 MLOAD PUSH4 0xF92EE8A9 PUSH1 0xE0 SHL DUP2 MSTORE PUSH1 0x4 SWAP1 REVERT JUMPDEST PUSH1 0x0 DUP1 REVERT JUMPDEST PUSH4 0x4E487B71 PUSH1 0xE0 SHL PUSH1 0x0 MSTORE PUSH1 0x41 PUSH1 0x4 MSTORE PUSH1 0x24 PUSH1 0x0 REVERT INVALID PUSH1 0x80 PUSH1 0x40 MSTORE PUSH1 0x4 CALLDATASIZE LT ISZERO PUSH2 0x1B JUMPI JUMPDEST CALLDATASIZE ISZERO PUSH2 0x19 JUMPI PUSH1 0x0 DUP1 REVERT JUMPDEST STOP JUMPDEST PUSH1 0x0 CALLDATALOAD PUSH1 0xE0 SHR DUP1 PUSH4 0x15E58E12 EQ PUSH2 0xEB JUMPI DUP1 PUSH4 0x1D266200 EQ PUSH2 0xE6 JUMPI DUP1 PUSH4 0x2A819728 EQ PUSH2 0xE1 JUMPI DUP1 PUSH4 0x3A871CDD EQ PUSH2 0xDC JUMPI DUP1 PUSH4 0x47E1DA2A EQ PUSH2 0xD7 JUMPI DUP1 PUSH4 0x4F1EF286 EQ PUSH2 0xD2 JUMPI DUP1 PUSH4 0x52D1902D EQ PUSH2 0xCD JUMPI DUP1 PUSH4 0x8DA5CB5B EQ PUSH2 0xC8 JUMPI DUP1 PUSH4 0xAD3CB1CC EQ PUSH2 0xC3 JUMPI DUP1 PUSH4 0xB0D691FE EQ PUSH2 0xBE JUMPI DUP1 PUSH4 0xB61D27F6 EQ PUSH2 0xB9 JUMPI DUP1 PUSH4 0xC4D66DE8 EQ PUSH2 0xB4 JUMPI PUSH4 0xD087D288 SUB PUSH2 0xE JUMPI PUSH2 0x90E JUMP JUMPDEST PUSH2 0x79E JUMP JUMPDEST PUSH2 0x738 JUMP JUMPDEST PUSH2 0x6F3 JUMP JUMPDEST PUSH2 0x676 JUMP JUMPDEST PUSH2 0x64D JUMP JUMPDEST PUSH2 0x5E2 JUMP JUMPDEST PUSH2 0x468 JUMP JUMPDEST PUSH2 0x290 JUMP JUMPDEST PUSH2 0x1D8 JUMP JUMPDEST PUSH2 0x17B JUMP JUMPDEST PUSH2 0x121 JUMP JUMPDEST CALLVALUE PUSH2 0x11C JUMPI PUSH1 0x20 CALLDATASIZE PUSH1 0x3 NOT ADD SLT PUSH2 0x11C JUMPI PUSH1 0x4 CALLDATALOAD PUSH1 0x0 MSTORE PUSH1 0x1 PUSH1 0x20 MSTORE PUSH1 0x20 PUSH1 0xFF PUSH1 0x40 PUSH1 0x0 KECCAK256 SLOAD AND PUSH1 0x40 MLOAD SWAP1 ISZERO ISZERO DUP2 MSTORE RETURN JUMPDEST PUSH1 0x0 DUP1 REVERT JUMPDEST CALLVALUE PUSH2 0x11C JUMPI PUSH1 0x20 CALLDATASIZE PUSH1 0x3 NOT ADD SLT PUSH2 0x11C JUMPI PUSH1 0x4 CALLDATALOAD PUSH2 0x13D PUSH2 0xA6D JUMP JUMPDEST PUSH1 0x0 DUP2 DUP2 MSTORE PUSH1 0x1 PUSH1 0x20 MSTORE PUSH1 0x40 DUP2 KECCAK256 DUP1 SLOAD PUSH1 0xFF NOT AND SWAP1 SSTORE SWAP1 PUSH32 0xE0862975AC517B0478D308012AFABC4BC37C23874A18144D7F2DFB852FF95C2C DUP3 DUP1 LOG2 DUP1 RETURN JUMPDEST CALLVALUE PUSH2 0x11C JUMPI PUSH1 0x20 CALLDATASIZE PUSH1 0x3 NOT ADD SLT PUSH2 0x11C JUMPI PUSH1 0x4 CALLDATALOAD PUSH2 0x197 PUSH2 0xA6D JUMP JUMPDEST PUSH1 0x0 SWAP1 DUP1 DUP3 MSTORE PUSH1 0x1 PUSH1 0x20 MSTORE PUSH1 0x40 DUP3 KECCAK256 PUSH1 0x1 PUSH1 0xFF NOT DUP3 SLOAD AND OR SWAP1 SSTORE PUSH32 0x67FC71AB96FE3FA3C6F78E9A00E635D591B7333CE611C0380BC577AAC702243B DUP3 DUP1 LOG2 DUP1 RETURN JUMPDEST CALLVALUE PUSH2 0x11C JUMPI PUSH1 0x3 NOT PUSH1 0x60 CALLDATASIZE DUP3 ADD SLT PUSH2 0x11C JUMPI PUSH1 0x4 CALLDATALOAD SWAP1 PUSH8 0xFFFFFFFFFFFFFFFF DUP3 GT PUSH2 0x11C JUMPI PUSH2 0x160 SWAP1 DUP3 CALLDATASIZE SUB ADD SLT PUSH2 0x11C JUMPI PUSH2 0x241 SWAP1 PUSH2 0x229 PUSH1 0x44 CALLDATALOAD SWAP2 PUSH2 0x21D PUSH2 0xAE5 JUMP JUMPDEST PUSH1 0x24 CALLDATALOAD SWAP1 PUSH1 0x4 ADD PUSH2 0xB5C JUMP JUMPDEST SWAP1 DUP1 PUSH2 0x245 JUMPI JUMPDEST POP PUSH1 0x40 MLOAD SWAP1 DUP2 MSTORE SWAP1 DUP2 SWAP1 PUSH1 0x20 DUP3 ADD SWAP1 JUMP JUMPDEST SUB SWAP1 RETURN JUMPDEST PUSH1 0x0 DUP1 DUP1 DUP1 SWAP4 CALLER DUP3 NOT CALL POP PUSH2 0x258 PUSH2 0xBD0 JUMP JUMPDEST POP CODESIZE PUSH2 0x230 JUMP JUMPDEST SWAP2 DUP2 PUSH1 0x1F DUP5 ADD SLT ISZERO PUSH2 0x11C JUMPI DUP3 CALLDATALOAD SWAP2 PUSH8 0xFFFFFFFFFFFFFFFF DUP4 GT PUSH2 0x11C JUMPI PUSH1 0x20 DUP1 DUP6 ADD SWAP5 DUP5 PUSH1 0x5 SHL ADD ADD GT PUSH2 0x11C JUMPI JUMP JUMPDEST CALLVALUE PUSH2 0x11C JUMPI PUSH1 0x60 CALLDATASIZE PUSH1 0x3 NOT ADD SLT PUSH2 0x11C JUMPI PUSH8 0xFFFFFFFFFFFFFFFF PUSH1 0x4 CALLDATALOAD DUP2 DUP2 GT PUSH2 0x11C JUMPI PUSH2 0x2C2 SWAP1 CALLDATASIZE SWAP1 PUSH1 0x4 ADD PUSH2 0x25F JUMP JUMPDEST SWAP1 PUSH1 0x24 CALLDATALOAD DUP4 DUP2 GT PUSH2 0x11C JUMPI PUSH2 0x2DB SWAP1 CALLDATASIZE SWAP1 PUSH1 0x4 ADD PUSH2 0x25F JUMP JUMPDEST SWAP4 PUSH1 0x44 CALLDATALOAD SWAP1 DUP2 GT PUSH2 0x11C JUMPI PUSH2 0x2F4 SWAP1 CALLDATASIZE SWAP1 PUSH1 0x4 ADD PUSH2 0x25F JUMP JUMPDEST SWAP3 PUSH2 0x2FD PUSH2 0xAE5 JUMP JUMPDEST DUP6 DUP6 EQ DUP1 PUSH2 0x3A2 JUMPI JUMPDEST ISZERO PUSH2 0x35D JUMPI PUSH1 0x0 JUMPDEST DUP6 DUP2 LT PUSH2 0x317 JUMPI STOP JUMPDEST DUP1 PUSH2 0x357 PUSH2 0x330 PUSH2 0x32B PUSH1 0x1 SWAP5 DUP11 DUP8 PUSH2 0x9DE JUMP JUMPDEST PUSH2 0x9F3 JUMP JUMPDEST PUSH2 0x33B DUP4 DUP12 DUP10 PUSH2 0x9DE JUMP JUMPDEST CALLDATALOAD PUSH2 0x351 PUSH2 0x34A DUP6 DUP12 DUP11 PUSH2 0xA33 JUMP JUMPDEST CALLDATASIZE SWAP2 PUSH2 0x431 JUMP JUMPDEST SWAP2 PUSH2 0xC00 JUMP JUMPDEST ADD PUSH2 0x30E JUMP JUMPDEST PUSH1 0x40 MLOAD PUSH3 0x461BCD PUSH1 0xE5 SHL DUP2 MSTORE PUSH1 0x20 PUSH1 0x4 DUP3 ADD MSTORE PUSH1 0x19 PUSH1 0x24 DUP3 ADD MSTORE PUSH32 0x584163636F756E743A206C656E677468206D69736D6174636800000000000000 PUSH1 0x44 DUP3 ADD MSTORE PUSH1 0x64 SWAP1 REVERT JUMPDEST POP DUP4 DUP7 EQ PUSH2 0x306 JUMP JUMPDEST PUSH1 0x1 PUSH1 0x1 PUSH1 0xA0 SHL SUB DUP2 AND SUB PUSH2 0x11C JUMPI JUMP JUMPDEST PUSH4 0x4E487B71 PUSH1 0xE0 SHL PUSH1 0x0 MSTORE PUSH1 0x41 PUSH1 0x4 MSTORE PUSH1 0x24 PUSH1 0x0 REVERT JUMPDEST PUSH1 0x40 DUP2 ADD SWAP1 DUP2 LT PUSH8 0xFFFFFFFFFFFFFFFF DUP3 GT OR PUSH2 0x3EE JUMPI PUSH1 0x40 MSTORE JUMP JUMPDEST PUSH2 0x3BC JUMP JUMPDEST SWAP1 PUSH1 0x1F DUP1 NOT SWAP2 ADD AND DUP2 ADD SWAP1 DUP2 LT PUSH8 0xFFFFFFFFFFFFFFFF DUP3 GT OR PUSH2 0x3EE JUMPI PUSH1 0x40 MSTORE JUMP JUMPDEST PUSH8 0xFFFFFFFFFFFFFFFF DUP2 GT PUSH2 0x3EE JUMPI PUSH1 0x1F ADD PUSH1 0x1F NOT AND PUSH1 0x20 ADD SWAP1 JUMP JUMPDEST SWAP3 SWAP2 SWAP3 PUSH2 0x43D DUP3 PUSH2 0x415 JUMP JUMPDEST SWAP2 PUSH2 0x44B PUSH1 0x40 MLOAD SWAP4 DUP5 PUSH2 0x3F3 JUMP JUMPDEST DUP3 SWAP5 DUP2 DUP5 MSTORE DUP2 DUP4 ADD GT PUSH2 0x11C JUMPI DUP3 DUP2 PUSH1 0x20 SWAP4 DUP5 PUSH1 0x0 SWAP7 ADD CALLDATACOPY ADD ADD MSTORE JUMP JUMPDEST PUSH1 0x40 CALLDATASIZE PUSH1 0x3 NOT ADD SLT PUSH2 0x11C JUMPI PUSH1 0x4 DUP1 CALLDATALOAD SWAP1 PUSH2 0x482 DUP3 PUSH2 0x3AB JUMP JUMPDEST PUSH1 0x24 CALLDATALOAD PUSH8 0xFFFFFFFFFFFFFFFF DUP2 GT PUSH2 0x11C JUMPI CALLDATASIZE PUSH1 0x23 DUP3 ADD SLT ISZERO PUSH2 0x11C JUMPI PUSH2 0x4B2 SWAP1 CALLDATASIZE SWAP1 PUSH1 0x24 DUP2 DUP6 ADD CALLDATALOAD SWAP2 ADD PUSH2 0x431 JUMP JUMPDEST PUSH1 0x1 PUSH1 0x1 PUSH1 0xA0 SHL SUB PUSH32 0x0 DUP2 AND ADDRESS DUP2 EQ SWAP1 DUP2 ISZERO PUSH2 0x5C6 JUMPI JUMPDEST POP PUSH2 0x5B5 JUMPI SWAP1 PUSH1 0x20 DUP4 SWAP3 PUSH2 0x4FA PUSH2 0xA6D JUMP JUMPDEST PUSH1 0x40 MLOAD PUSH4 0x52D1902D PUSH1 0xE0 SHL DUP2 MSTORE SWAP4 DUP5 SWAP2 DUP3 SWAP1 DUP9 AND GAS STATICCALL PUSH1 0x0 SWAP3 DUP2 PUSH2 0x584 JUMPI JUMPDEST POP PUSH2 0x547 JUMPI POP POP PUSH1 0x40 MLOAD PUSH4 0x4C9C8CE3 PUSH1 0xE0 SHL DUP2 MSTORE PUSH1 0x1 PUSH1 0x1 PUSH1 0xA0 SHL SUB SWAP1 SWAP3 AND SWAP1 DUP3 ADD SWAP1 DUP2 MSTORE DUP2 SWAP1 PUSH1 0x20 ADD SUB SWAP1 REVERT JUMPDEST DUP4 DUP4 PUSH1 0x0 DUP1 MLOAD PUSH1 0x20 PUSH2 0xECD DUP4 CODECOPY DUP2 MLOAD SWAP2 MSTORE DUP5 SUB PUSH2 0x568 JUMPI PUSH2 0x19 DUP4 DUP4 PUSH2 0xC37 JUMP JUMPDEST PUSH1 0x40 MLOAD PUSH4 0x2A875269 PUSH1 0xE2 SHL DUP2 MSTORE SWAP1 DUP2 ADD DUP5 DUP2 MSTORE DUP2 SWAP1 PUSH1 0x20 ADD SUB SWAP1 REVERT JUMPDEST PUSH2 0x5A7 SWAP2 SWAP4 POP PUSH1 0x20 RETURNDATASIZE PUSH1 0x20 GT PUSH2 0x5AE JUMPI JUMPDEST PUSH2 0x59F DUP2 DUP4 PUSH2 0x3F3 JUMP JUMPDEST DUP2 ADD SWAP1 PUSH2 0xC28 JUMP JUMPDEST SWAP2 CODESIZE PUSH2 0x519 JUMP JUMPDEST POP RETURNDATASIZE PUSH2 0x595 JUMP JUMPDEST PUSH1 0x40 MLOAD PUSH4 0x703E46DD PUSH1 0xE1 SHL DUP2 MSTORE DUP4 SWAP1 REVERT JUMPDEST SWAP1 POP DUP2 PUSH1 0x0 DUP1 MLOAD PUSH1 0x20 PUSH2 0xECD DUP4 CODECOPY DUP2 MLOAD SWAP2 MSTORE SLOAD AND EQ ISZERO CODESIZE PUSH2 0x4E8 JUMP JUMPDEST CALLVALUE PUSH2 0x11C JUMPI PUSH1 0x0 CALLDATASIZE PUSH1 0x3 NOT ADD SLT PUSH2 0x11C JUMPI PUSH32 0x0 PUSH1 0x1 PUSH1 0x1 PUSH1 0xA0 SHL SUB AND ADDRESS SUB PUSH2 0x63B JUMPI PUSH1 0x20 PUSH1 0x40 MLOAD PUSH1 0x0 DUP1 MLOAD PUSH1 0x20 PUSH2 0xECD DUP4 CODECOPY DUP2 MLOAD SWAP2 MSTORE DUP2 MSTORE RETURN JUMPDEST PUSH1 0x40 MLOAD PUSH4 0x703E46DD PUSH1 0xE1 SHL DUP2 MSTORE PUSH1 0x4 SWAP1 REVERT JUMPDEST CALLVALUE PUSH2 0x11C JUMPI PUSH1 0x0 CALLDATASIZE PUSH1 0x3 NOT ADD SLT PUSH2 0x11C JUMPI PUSH1 0x0 SLOAD PUSH1 0x40 MLOAD PUSH1 0x1 PUSH1 0x1 PUSH1 0xA0 SHL SUB SWAP1 SWAP2 AND DUP2 MSTORE PUSH1 0x20 SWAP1 RETURN JUMPDEST CALLVALUE PUSH2 0x11C JUMPI PUSH1 0x0 CALLDATASIZE PUSH1 0x3 NOT ADD SLT PUSH2 0x11C JUMPI PUSH1 0x40 DUP1 MLOAD SWAP1 PUSH2 0x695 DUP3 PUSH2 0x3D2 JUMP JUMPDEST PUSH1 0x5 DUP3 MSTORE PUSH1 0x20 SWAP1 PUSH5 0x352E302E3 PUSH1 0xDC SHL PUSH1 0x20 DUP5 ADD MSTORE PUSH1 0x40 MLOAD SWAP2 PUSH1 0x20 DUP4 MSTORE DUP4 MLOAD SWAP2 DUP3 PUSH1 0x20 DUP6 ADD MSTORE PUSH1 0x0 JUMPDEST DUP4 DUP2 LT PUSH2 0x6E0 JUMPI DUP5 PUSH1 0x40 DUP2 DUP7 PUSH1 0x0 DUP4 DUP3 DUP5 ADD ADD MSTORE PUSH1 0x1F DUP1 NOT SWAP2 ADD AND DUP2 ADD SUB ADD SWAP1 RETURN JUMPDEST DUP6 DUP2 ADD DUP4 ADD MLOAD DUP6 DUP3 ADD DUP4 ADD MSTORE DUP3 ADD PUSH2 0x6BE JUMP JUMPDEST CALLVALUE PUSH2 0x11C JUMPI PUSH1 0x0 CALLDATASIZE PUSH1 0x3 NOT ADD SLT PUSH2 0x11C JUMPI PUSH1 0x40 MLOAD PUSH32 0x0 PUSH1 0x1 PUSH1 0x1 PUSH1 0xA0 SHL SUB AND DUP2 MSTORE PUSH1 0x20 SWAP1 RETURN JUMPDEST CALLVALUE PUSH2 0x11C JUMPI PUSH1 0x60 CALLDATASIZE PUSH1 0x3 NOT ADD SLT PUSH2 0x11C JUMPI PUSH1 0x4 CALLDATALOAD PUSH2 0x755 DUP2 PUSH2 0x3AB JUMP JUMPDEST PUSH1 0x44 CALLDATALOAD SWAP1 PUSH8 0xFFFFFFFFFFFFFFFF SWAP1 DUP2 DUP4 GT PUSH2 0x11C JUMPI CALLDATASIZE PUSH1 0x23 DUP5 ADD SLT ISZERO PUSH2 0x11C JUMPI DUP3 PUSH1 0x4 ADD CALLDATALOAD SWAP2 DUP3 GT PUSH2 0x11C JUMPI CALLDATASIZE PUSH1 0x24 DUP4 DUP6 ADD ADD GT PUSH2 0x11C JUMPI PUSH1 0x24 PUSH2 0x19 SWAP4 ADD SWAP1 PUSH1 0x24 CALLDATALOAD SWAP1 PUSH2 0xA4E JUMP JUMPDEST CALLVALUE PUSH2 0x11C JUMPI PUSH1 0x20 CALLDATASIZE PUSH1 0x3 NOT ADD SLT PUSH2 0x11C JUMPI PUSH1 0x4 CALLDATALOAD PUSH2 0x7BB DUP2 PUSH2 0x3AB JUMP JUMPDEST PUSH1 0x0 DUP1 MLOAD PUSH1 0x20 PUSH2 0xEED DUP4 CODECOPY DUP2 MLOAD SWAP2 MSTORE SLOAD SWAP1 PUSH8 0xFFFFFFFFFFFFFFFF PUSH1 0xFF DUP4 PUSH1 0x40 SHR AND ISZERO SWAP3 AND DUP1 ISZERO SWAP1 DUP2 PUSH2 0x906 JUMPI JUMPDEST PUSH1 0x1 EQ SWAP1 DUP2 PUSH2 0x8FC JUMPI JUMPDEST ISZERO SWAP1 DUP2 PUSH2 0x8F3 JUMPI JUMPDEST POP PUSH2 0x8E1 JUMPI PUSH1 0x0 DUP1 MLOAD PUSH1 0x20 PUSH2 0xEED DUP4 CODECOPY DUP2 MLOAD SWAP2 MSTORE DUP1 SLOAD PUSH8 0xFFFFFFFFFFFFFFFF NOT AND PUSH1 0x1 OR SWAP1 SSTORE PUSH2 0x84B SWAP1 DUP3 PUSH2 0x89A JUMPI PUSH1 0x1 DUP1 PUSH1 0xA0 SHL SUB AND PUSH12 0xFFFFFFFFFFFFFFFFFFFFFFFF PUSH1 0xA0 SHL PUSH1 0x0 SLOAD AND OR PUSH1 0x0 SSTORE JUMP JUMPDEST PUSH2 0x851 JUMPI STOP JUMPDEST PUSH1 0x0 DUP1 MLOAD PUSH1 0x20 PUSH2 0xEED DUP4 CODECOPY DUP2 MLOAD SWAP2 MSTORE DUP1 SLOAD PUSH1 0xFF PUSH1 0x40 SHL NOT AND SWAP1 SSTORE PUSH1 0x40 MLOAD PUSH1 0x1 DUP2 MSTORE PUSH32 0xC7F505B2F371AE2175EE4913F4499E1F2633A7B5936321EED1CDAEB6115181D2 SWAP1 PUSH1 0x20 SWAP1 LOG1 STOP JUMPDEST PUSH1 0x0 DUP1 MLOAD PUSH1 0x20 PUSH2 0xEED DUP4 CODECOPY DUP2 MLOAD SWAP2 MSTORE DUP1 SLOAD PUSH1 0xFF PUSH1 0x40 SHL NOT AND PUSH9 0x10000000000000000 OR SWAP1 SSTORE PUSH1 0x1 DUP1 PUSH1 0xA0 SHL SUB AND PUSH12 0xFFFFFFFFFFFFFFFFFFFFFFFF PUSH1 0xA0 SHL PUSH1 0x0 SLOAD AND OR PUSH1 0x0 SSTORE JUMP JUMPDEST PUSH1 0x40 MLOAD PUSH4 0xF92EE8A9 PUSH1 0xE0 SHL DUP2 MSTORE PUSH1 0x4 SWAP1 REVERT JUMPDEST SWAP1 POP ISZERO CODESIZE PUSH2 0x7FA JUMP JUMPDEST ADDRESS EXTCODESIZE ISZERO SWAP2 POP PUSH2 0x7F2 JUMP JUMPDEST DUP4 SWAP2 POP PUSH2 0x7E8 JUMP JUMPDEST CALLVALUE PUSH2 0x11C JUMPI PUSH1 0x0 DUP1 PUSH1 0x3 NOT CALLDATASIZE ADD SLT PUSH2 0x9C5 JUMPI PUSH1 0x40 MLOAD PUSH4 0x1AAB3F0D PUSH1 0xE1 SHL DUP2 MSTORE ADDRESS PUSH1 0x4 DUP3 ADD MSTORE PUSH1 0x24 DUP2 ADD DUP3 SWAP1 MSTORE PUSH1 0x20 DUP2 PUSH1 0x44 DUP2 PUSH32 0x0 PUSH1 0x1 PUSH1 0x1 PUSH1 0xA0 SHL SUB AND GAS STATICCALL SWAP1 DUP2 ISZERO PUSH2 0x9C0 JUMPI DUP3 SWAP2 PUSH2 0x985 JUMPI JUMPDEST PUSH1 0x40 MLOAD DUP3 DUP2 MSTORE PUSH1 0x20 SWAP1 RETURN JUMPDEST SWAP1 POP PUSH1 0x20 DUP2 RETURNDATASIZE PUSH1 0x20 GT PUSH2 0x9B8 JUMPI JUMPDEST DUP2 PUSH2 0x9A0 PUSH1 0x20 SWAP4 DUP4 PUSH2 0x3F3 JUMP JUMPDEST DUP2 ADD SUB SLT PUSH2 0x9B4 JUMPI PUSH2 0x241 SWAP2 POP MLOAD CODESIZE PUSH2 0x97A JUMP JUMPDEST POP DUP1 REVERT JUMPDEST RETURNDATASIZE SWAP2 POP PUSH2 0x993 JUMP JUMPDEST PUSH2 0xA61 JUMP JUMPDEST DUP1 REVERT JUMPDEST PUSH4 0x4E487B71 PUSH1 0xE0 SHL PUSH1 0x0 MSTORE PUSH1 0x32 PUSH1 0x4 MSTORE PUSH1 0x24 PUSH1 0x0 REVERT JUMPDEST SWAP2 SWAP1 DUP2 LT ISZERO PUSH2 0x9EE JUMPI PUSH1 0x5 SHL ADD SWAP1 JUMP JUMPDEST PUSH2 0x9C8 JUMP JUMPDEST CALLDATALOAD PUSH2 0x9FD DUP2 PUSH2 0x3AB JUMP JUMPDEST SWAP1 JUMP JUMPDEST SWAP1 CALLDATALOAD SWAP1 PUSH1 0x1E NOT DUP2 CALLDATASIZE SUB ADD DUP3 SLT ISZERO PUSH2 0x11C JUMPI ADD DUP1 CALLDATALOAD SWAP1 PUSH8 0xFFFFFFFFFFFFFFFF DUP3 GT PUSH2 0x11C JUMPI PUSH1 0x20 ADD SWAP2 DUP2 CALLDATASIZE SUB DUP4 SGT PUSH2 0x11C JUMPI JUMP JUMPDEST SWAP1 DUP3 LT ISZERO PUSH2 0x9EE JUMPI PUSH2 0xA4A SWAP2 PUSH1 0x5 SHL DUP2 ADD SWAP1 PUSH2 0xA00 JUMP JUMPDEST SWAP1 SWAP2 JUMP JUMPDEST SWAP2 PUSH2 0x351 SWAP1 PUSH2 0xA5F SWAP5 PUSH2 0x34A PUSH2 0xAE5 JUMP JUMPDEST JUMP JUMPDEST PUSH1 0x40 MLOAD RETURNDATASIZE PUSH1 0x0 DUP3 RETURNDATACOPY RETURNDATASIZE SWAP1 REVERT JUMPDEST PUSH1 0x0 SLOAD PUSH1 0x1 PUSH1 0x1 PUSH1 0xA0 SHL SUB AND CALLER EQ DUP1 ISZERO PUSH2 0xADC JUMPI JUMPDEST ISZERO PUSH2 0xA89 JUMPI JUMP JUMPDEST PUSH1 0x40 MLOAD PUSH3 0x461BCD PUSH1 0xE5 SHL DUP2 MSTORE PUSH1 0x20 PUSH1 0x4 DUP3 ADD MSTORE PUSH1 0x25 PUSH1 0x24 DUP3 ADD MSTORE PUSH32 0x584163636F756E743A2063616C6C6572206973206E6F74206F776E6572206F72 PUSH1 0x44 DUP3 ADD MSTORE PUSH5 0x1039B2B633 PUSH1 0xD9 SHL PUSH1 0x64 DUP3 ADD MSTORE PUSH1 0x84 SWAP1 REVERT JUMPDEST POP ADDRESS CALLER EQ PUSH2 0xA82 JUMP JUMPDEST PUSH32 0x0 PUSH1 0x1 PUSH1 0x1 PUSH1 0xA0 SHL SUB AND CALLER SUB PUSH2 0xB17 JUMPI JUMP JUMPDEST PUSH1 0x40 MLOAD PUSH3 0x461BCD PUSH1 0xE5 SHL DUP2 MSTORE PUSH1 0x20 PUSH1 0x4 DUP3 ADD MSTORE PUSH1 0x1C PUSH1 0x24 DUP3 ADD MSTORE PUSH32 0x6163636F756E743A206E6F742066726F6D20456E747279506F696E7400000000 PUSH1 0x44 DUP3 ADD MSTORE PUSH1 0x64 SWAP1 REVERT JUMPDEST PUSH2 0xBA8 SWAP1 PUSH2 0xBB1 SWAP3 PUSH32 0x19457468657265756D205369676E6564204D6573736167653A0A333200000000 PUSH1 0x0 MSTORE PUSH1 0x1C MSTORE PUSH2 0xBA2 PUSH2 0x34A PUSH1 0x3C PUSH1 0x0 KECCAK256 SWAP3 PUSH2 0x140 DUP2 ADD SWAP1 PUSH2 0xA00 JUMP JUMPDEST SWAP1 PUSH2 0xCDE JUMP JUMPDEST SWAP1 SWAP3 SWAP2 SWAP3 PUSH2 0xD3A JUMP JUMPDEST PUSH1 0x0 SLOAD PUSH1 0x1 PUSH1 0x1 PUSH1 0xA0 SHL SUB SWAP1 DUP2 AND SWAP2 AND SUB PUSH2 0xBCB JUMPI PUSH1 0x0 SWAP1 JUMP JUMPDEST PUSH1 0x1 SWAP1 JUMP JUMPDEST RETURNDATASIZE ISZERO PUSH2 0xBFB JUMPI RETURNDATASIZE SWAP1 PUSH2 0xBE1 DUP3 PUSH2 0x415 JUMP JUMPDEST SWAP2 PUSH2 0xBEF PUSH1 0x40 MLOAD SWAP4 DUP5 PUSH2 0x3F3 JUMP JUMPDEST DUP3 MSTORE RETURNDATASIZE PUSH1 0x0 PUSH1 0x20 DUP5 ADD RETURNDATACOPY JUMP JUMPDEST PUSH1 0x60 SWAP1 JUMP JUMPDEST SWAP2 PUSH1 0x0 SWAP3 DUP4 SWAP3 PUSH1 0x20 DUP4 MLOAD SWAP4 ADD SWAP2 GAS CALL PUSH2 0xC17 PUSH2 0xBD0 JUMP JUMPDEST SWAP1 ISZERO PUSH2 0xC20 JUMPI POP JUMP JUMPDEST PUSH1 0x20 DUP2 MLOAD SWAP2 ADD REVERT JUMPDEST SWAP1 DUP2 PUSH1 0x20 SWAP2 SUB SLT PUSH2 0x11C JUMPI MLOAD SWAP1 JUMP JUMPDEST SWAP1 DUP2 EXTCODESIZE ISZERO PUSH2 0xCBD JUMPI PUSH1 0x0 DUP1 MLOAD PUSH1 0x20 PUSH2 0xECD DUP4 CODECOPY DUP2 MLOAD SWAP2 MSTORE DUP1 SLOAD PUSH1 0x1 PUSH1 0x1 PUSH1 0xA0 SHL SUB NOT AND PUSH1 0x1 PUSH1 0x1 PUSH1 0xA0 SHL SUB DUP5 AND SWAP1 DUP2 OR SWAP1 SWAP2 SSTORE PUSH32 0xBC7CD75A20EE27FD9ADEBAB32041F755214DBC6BFFA90CC0225B39DA2E5C2D3B PUSH1 0x0 DUP1 LOG2 DUP1 MLOAD ISZERO PUSH2 0xCA2 JUMPI PUSH2 0xC9F SWAP2 PUSH2 0xDC7 JUMP JUMPDEST POP JUMP JUMPDEST POP POP CALLVALUE PUSH2 0xCAB JUMPI JUMP JUMPDEST PUSH1 0x40 MLOAD PUSH4 0xB398979F PUSH1 0xE0 SHL DUP2 MSTORE PUSH1 0x4 SWAP1 REVERT JUMPDEST PUSH1 0x40 MLOAD PUSH4 0x4C9C8CE3 PUSH1 0xE0 SHL DUP2 MSTORE PUSH1 0x1 PUSH1 0x1 PUSH1 0xA0 SHL SUB DUP4 AND PUSH1 0x4 DUP3 ADD MSTORE PUSH1 0x24 SWAP1 REVERT JUMPDEST DUP2 MLOAD SWAP2 SWAP1 PUSH1 0x41 DUP4 SUB PUSH2 0xD0F JUMPI PUSH2 0xD08 SWAP3 POP PUSH1 0x20 DUP3 ADD MLOAD SWAP1 PUSH1 0x60 PUSH1 0x40 DUP5 ADD MLOAD SWAP4 ADD MLOAD PUSH1 0x0 BYTE SWAP1 PUSH2 0xDE5 JUMP JUMPDEST SWAP2 SWAP3 SWAP1 SWAP2 SWAP1 JUMP JUMPDEST POP POP PUSH1 0x0 SWAP2 PUSH1 0x2 SWAP2 SWAP1 JUMP JUMPDEST PUSH1 0x4 GT ISZERO PUSH2 0xD24 JUMPI JUMP JUMPDEST PUSH4 0x4E487B71 PUSH1 0xE0 SHL PUSH1 0x0 MSTORE PUSH1 0x21 PUSH1 0x4 MSTORE PUSH1 0x24 PUSH1 0x0 REVERT JUMPDEST PUSH2 0xD43 DUP2 PUSH2 0xD1A JUMP JUMPDEST DUP1 PUSH2 0xD4C JUMPI POP POP JUMP JUMPDEST PUSH2 0xD55 DUP2 PUSH2 0xD1A JUMP JUMPDEST PUSH1 0x1 DUP2 SUB PUSH2 0xD6F JUMPI PUSH1 0x40 MLOAD PUSH4 0xF645EEDF PUSH1 0xE0 SHL DUP2 MSTORE PUSH1 0x4 SWAP1 REVERT JUMPDEST PUSH2 0xD78 DUP2 PUSH2 0xD1A JUMP JUMPDEST PUSH1 0x2 DUP2 SUB PUSH2 0xD99 JUMPI PUSH1 0x40 MLOAD PUSH4 0xFCE698F7 PUSH1 0xE0 SHL DUP2 MSTORE PUSH1 0x4 DUP2 ADD DUP4 SWAP1 MSTORE PUSH1 0x24 SWAP1 REVERT JUMPDEST DUP1 PUSH2 0xDA5 PUSH1 0x3 SWAP3 PUSH2 0xD1A JUMP JUMPDEST EQ PUSH2 0xDAD JUMPI POP JUMP JUMPDEST PUSH1 0x40 MLOAD PUSH4 0x35E2F383 PUSH1 0xE2 SHL DUP2 MSTORE PUSH1 0x4 DUP2 ADD SWAP2 SWAP1 SWAP2 MSTORE PUSH1 0x24 SWAP1 REVERT JUMPDEST PUSH1 0x0 DUP1 PUSH2 0x9FD SWAP4 PUSH1 0x20 DUP2 MLOAD SWAP2 ADD DUP5 GAS DELEGATECALL PUSH2 0xDDF PUSH2 0xBD0 JUMP JUMPDEST SWAP2 PUSH2 0xE69 JUMP JUMPDEST SWAP2 SWAP1 PUSH32 0x7FFFFFFFFFFFFFFFFFFFFFFFFFFFFFFF5D576E7357A4501DDFE92F46681B20A0 DUP5 GT PUSH2 0xE5D JUMPI SWAP3 PUSH1 0x20 SWAP3 SWAP2 PUSH1 0xFF PUSH1 0x80 SWAP6 PUSH1 0x40 MLOAD SWAP5 DUP6 MSTORE AND DUP5 DUP5 ADD MSTORE PUSH1 0x40 DUP4 ADD MSTORE PUSH1 0x60 DUP3 ADD MSTORE PUSH1 0x0 SWAP3 DUP4 SWAP2 DUP3 DUP1 MSTORE PUSH1 0x1 GAS STATICCALL ISZERO PUSH2 0x9C0 JUMPI DUP1 MLOAD PUSH1 0x1 PUSH1 0x1 PUSH1 0xA0 SHL SUB DUP2 AND ISZERO PUSH2 0xE54 JUMPI SWAP2 DUP2 SWAP1 JUMP JUMPDEST POP DUP1 SWAP2 PUSH1 0x1 SWAP2 SWAP1 JUMP JUMPDEST POP POP POP PUSH1 0x0 SWAP2 PUSH1 0x3 SWAP2 SWAP1 JUMP JUMPDEST SWAP1 PUSH2 0xE90 JUMPI POP DUP1 MLOAD ISZERO PUSH2 0xE7E JUMPI PUSH1 0x20 DUP2 MLOAD SWAP2 ADD REVERT JUMPDEST PUSH1 0x40 MLOAD PUSH4 0xD6BDA275 PUSH1 0xE0 SHL DUP2 MSTORE PUSH1 0x4 SWAP1 REVERT JUMPDEST DUP2 MLOAD ISZERO DUP1 PUSH2 0xEC3 JUMPI JUMPDEST PUSH2 0xEA1 JUMPI POP SWAP1 JUMP JUMPDEST PUSH1 0x40 MLOAD PUSH4 0x9996B315 PUSH1 0xE0 SHL DUP2 MSTORE PUSH1 0x1 PUSH1 0x1 PUSH1 0xA0 SHL SUB SWAP1 SWAP2 AND PUSH1 0x4 DUP3 ADD MSTORE PUSH1 0x24 SWAP1 REVERT JUMPDEST POP DUP1 EXTCODESIZE ISZERO PUSH2 0xE99 JUMP INVALID CALLDATASIZE ADDMOD SWAP5 LOG1 EXTCODESIZE LOG1 LOG3 0x21 MOD PUSH8 0xC828492DB98DCA3E KECCAK256 PUSH23 0xCC3735A920A3CA505D382BBCF0C57E16840DF040F15088 0xDC 0x2F DUP2 INVALID CODECOPY SHR CODECOPY 0x23 0xBE 0xC7 RETURNDATACOPY 0x23 0xA9 PUSH7 0x2EFC9C229C6A00 LOG2 PUSH5 0x6970667358 0x22 SLT KECCAK256 EXTCODEHASH PUSH12 0x8E98E71801E4629DE9398178 CREATE 0xA6 0x2C 0x2E 0xFB TLOAD DUP5 MCOPY 0x24 SWAP8 0xDE ORIGIN PUSH30 0x393E37613A64736F6C634300081800330000000000000000000000000000 "},"methodIdentifiers":{"accountImplementation()":"11464fbe","createAccount(address,uint256)":"5fbfb9cf","getAddress(address,uint256)":"8cb84e18"}}}}}