{
  "_format": "hh-sol-artifact-1",
  "contractName": "XFactory",
  "sourceName": "contracts/XFactory.sol",
  "abi": [
    {
      "inputs": [
        {
          "internalType": "contract IEntryPoint",
          "name": "_entryPoint",
          "type": "address"
        }
      ],
      "stateMutability": "nonpayable",
      "type": "constructor"
    },
    {
      "inputs": [],
      "name": "Create2EmptyBytecode",
      "type": "error"
    },
    {
      "inputs": [],
      "name": "FailedDeployment",
      "type": "error"
    },
    {
      "inputs": [
        {
          "internalType": "uint256",
          "name": "balance",
          "type": "uint256"
        },
        {
          "internalType": "uint256",
          "name": "needed",
          "type": "uint256"
        }
      ],
      "name": "InsufficientBalance",
      "type": "error"
    },
    {
      "anonymous": false,
      "inputs": [
        {
          "indexed": true,
          "internalType": "address",
          "name": "account",
          "type": "address"
        },
        {
          "indexed": false,
          "internalType": "uint256",
          "name": "publicKeyX",
          "type": "uint256"
        },
        {
          "indexed": false,
          "internalType": "uint256",
          "name": "publicKeyY",
          "type": "uint256"
        }
      ],
      "name": "AccountCreated",
      "type": "event"
    },
    {
      "inputs": [],
      "name": "accountImplementation",
      "outputs": [
        {
          "internalType": "contract XAccount",
          "name": "",
          "type": "address"
        }
      ],
      "stateMutability": "view",
      "type": "function"
    },
    {
      "inputs": [
        {
          "internalType": "uint256",
          "name": "publicKeyX",
          "type": "uint256"
        },
        {
          "internalType": "uint256",
          "name": "publicKeyY",
          "type": "uint256"
        },
        {
          "internalType": "uint256",
          "name": "salt",
          "type": "uint256"
        }
      ],
      "name": "createAccount",
      "outputs": [
        {
          "internalType": "contract XAccount",
          "name": "ret",
          "type": "address"
        }
      ],
      "stateMutability": "nonpayable",
      "type": "function"
    },
    {
      "inputs": [
        {
          "internalType": "uint256",
          "name": "publicKeyX",
          "type": "uint256"
        },
        {
          "internalType": "uint256",
          "name": "publicKeyY",
          "type": "uint256"
        },
        {
          "internalType": "uint256",
          "name": "salt",
          "type": "uint256"
        }
      ],
      "name": "getAddress",
      "outputs": [
        {
          "internalType": "address",
          "name": "",
          "type": "address"
        }
      ],
      "stateMutability": "view",
      "type": "function"
    }
  ],
  "bytecode": "0x60a0346100c4576001600160401b0390601f611b4738819003918201601f1916830191848311848410176100ae578084926020946040528339810103126100c457516001600160a01b038116908190036100c4576040519161142f90818401908111848210176100ae576020928492610718843981520301906000f080156100a25760805260405161064e90816100ca8239608051818181609e01526102bd0152f35b6040513d6000823e3d90fd5b634e487b7160e01b600052604160045260246000fd5b600080fdfe608080604052600436101561001357600080fd5b600090813560e01c90816311464fbe1461008a575080634c1ed7f5146100705763e81b22ea1461004257600080fd5b3461006d57602061005b610055366100d1565b916101ab565b6040516001600160a01b039091168152f35b80fd5b503461006d57602061005b610084366100d1565b916100f0565b9050346100cd57816003193601126100cd577f00000000000000000000000000000000000000000000000000000000000000006001600160a01b03168152602090f35b5080fd5b60609060031901126100eb57600435906024359060443590565b600080fd5b9092916100fe8185846101ab565b803b61019c575061010f8483610241565b80511561018a576020815191016000f53d151981151661017e576001600160a01b031690811561016c5760407fade0dca7a3d60b93dc10533e5f97a0146b67c0be8ea413443630699b6618d0b991839582519182526020820152a2565b60405163b06ebf3d60e01b8152600490fd5b6040513d6000823e3d90fd5b604051631328927760e21b8152600490fd5b6001600160a01b031693505050565b600b92916101b891610241565b602081519101209060405191604083015260208201523081520160ff8153605590206001600160a01b031690565b90601f8019910116810190811067ffffffffffffffff82111761020857604052565b634e487b7160e01b600052604160045260246000fd5b60005b8381106102315750506000910152565b8181015183820152602001610221565b6102d39060209060405190610258838501836101e6565b8382528282019361034685396040519483860191637251808b60e11b835260248701526044860152604485526080850185811067ffffffffffffffff82111761020857610336610342956103156080610327998560405260a081019660018060a01b037f0000000000000000000000000000000000000000000000000000000000000000168852604060c08301526102fe825180928160e086015261010085019061021e565b601f801991011681010360608101865201846101e6565b6040519788955180928888019061021e565b8401915180938684019061021e565b010380845201826101e6565b9056fe60806040526102d38038038061001481610194565b92833981019060408183031261018f5780516001600160a01b03811680820361018f5760208381015190936001600160401b03821161018f570184601f8201121561018f5780519061006d610068836101cf565b610194565b9582875285838301011161018f57849060005b83811061017b57505060009186010152813b15610163577f360894a13ba1a3210667c828492db98dca3e2076cc3735a920a3ca505d382bbc80546001600160a01b03191682179055604051907fbc7cd75a20ee27fd9adebab32041f755214dbc6bffa90cc0225b39da2e5c2d3b600080a28351156101455750600080848461012c96519101845af4903d1561013c573d61011c610068826101cf565b908152600081943d92013e6101ea565b505b6040516085908161024e8239f35b606092506101ea565b9250505034610154575061012e565b63b398979f60e01b8152600490fd5b60249060405190634c9c8ce360e01b82526004820152fd5b818101830151888201840152869201610080565b600080fd5b6040519190601f01601f191682016001600160401b038111838210176101b957604052565b634e487b7160e01b600052604160045260246000fd5b6001600160401b0381116101b957601f01601f191660200190565b9061021157508051156101ff57602081519101fd5b60405163d6bda27560e01b8152600490fd5b81511580610244575b610222575090565b604051639996b31560e01b81526001600160a01b039091166004820152602490fd5b50803b1561021a56fe60806040527f360894a13ba1a3210667c828492db98dca3e2076cc3735a920a3ca505d382bbc54600090819081906001600160a01b0316368280378136915af43d82803e15604b573d90f35b3d90fdfea2646970667358221220d5689bb9bdf453c58b2985b84bdedcbe8410e4ee1473f34ac7359ac72b7aa41d64736f6c63430008180033a26469706673582212207f425ff0c7658f7d0483059676aca2f9837ffd393f7eb040f66cfd1d3939ab3164736f6c6343000818003360c034610126576001600160401b0390601f61142f38819003918201601f19168301918483118484101761012b5780849260209460405283398101031261012657516001600160a01b0381168103610126573060805260a0527ff0c57e16840df040f15088dc2f81fe391c3923bec73e23a9662efc9c229c6a009081549060ff8260401c166101145780808316036100cf575b6040516112ed908161014282396080518181816105aa01526106e3015260a05181818161091e01528181610a3301528181610e790152610f130152f35b6001600160401b031990911681179091556040519081527fc7f505b2f371ae2175ee4913f4499e1f2633a7b5936321eed1cdaeb6115181d290602090a1388080610092565b60405163f92ee8a960e01b8152600490fd5b600080fd5b634e487b7160e01b600052604160045260246000fdfe6080604052600436101561001b575b361561001957600080fd5b005b60003560e01c806315e58e121461016b57806333eeb1471461016657806334fc259114610161578063387b94361461015c5780633a871cdd1461015757806347e1da2a146101525780634d9e29ac1461014d5780634f1ef2861461014857806352d1902d1461014357806367eeba0c1461013e578063869778df146101395780639de2579e14610134578063ad3cb1cc1461012f578063b0d691fe1461012a578063b20d30a914610125578063b61d27f614610120578063d087d2881461011b578063d7a6f6e814610116578063e160e3e514610111578063e4a301161461010c5763fa6df55d0361000e57610cd6565b610b93565b610adc565b610aa8565b6109ff565b610999565b61094d565b610908565b61088b565b610859565b610759565b61073b565b6106d0565b610556565b61045f565b610303565b61024b565b61021f565b6101c4565b6101a1565b3461019c57602036600319011261019c576004356000526002602052602060ff604060002054166040519015158152f35b600080fd5b3461019c57600036600319011261019c57602060ff600554166040519015158152f35b3461019c57600036600319011261019c576101dd610e76565b7f7c115515c8d84429e161340d221c476d02fb5b2888e14ca6231e1de35d0631a0602060055460ff8082161516809160ff1916176005556040519015158152a1005b3461019c57602036600319011261019c5760043560005260046020526020604060002054604051908152f35b3461019c5760031960603682011261019c576004359067ffffffffffffffff821161019c5761016090823603011261019c576102b49061029c60443591610290610f11565b60243590600401610fdb565b90806102b8575b506040519081529081906020820190565b0390f35b600080808093338219f1506102cb610f88565b50386102a3565b9181601f8401121561019c5782359167ffffffffffffffff831161019c576020808501948460051b01011161019c57565b3461019c57606036600319011261019c5767ffffffffffffffff60043581811161019c576103359036906004016102d2565b9060243583811161019c5761034e9036906004016102d2565b9360443590811161019c576103679036906004016102d2565b9461037760ff6005541615610cf4565b61037f610f11565b80851480610456575b1561041157939291906000946000945b8086106103a857610019876110c7565b9091929394956103b9878487610d56565b356103c391610d7b565b956103cf818388610d56565b6103d890610d88565b6103e3828588610d56565b356103ef838b88610dc8565b36906103fa9261051f565b906104049261109f565b6001019493929190610398565b60405162461bcd60e51b815260206004820152601960248201527f584163636f756e743a206c656e677468206d69736d61746368000000000000006044820152606490fd5b50858114610388565b3461019c57600036600319011261019c5760206040516202a3008152f35b6001600160a01b0381160361019c57565b634e487b7160e01b600052604160045260246000fd5b6060810190811067ffffffffffffffff8211176104c057604052565b61048e565b6040810190811067ffffffffffffffff8211176104c057604052565b90601f8019910116810190811067ffffffffffffffff8211176104c057604052565b67ffffffffffffffff81116104c057601f01601f191660200190565b92919261052b82610503565b9161053960405193846104e1565b82948184528183011161019c578281602093846000960137010152565b604036600319011261019c5760048035906105708261047d565b60243567ffffffffffffffff811161019c573660238201121561019c576105a0903690602481850135910161051f565b6001600160a01b037f000000000000000000000000000000000000000000000000000000000000000081163081149081156106b4575b506106a35790602083926105e8610e76565b6040516352d1902d60e01b8152938491829088165afa60009281610672575b50610635575050604051634c9c8ce360e01b81526001600160a01b0390921690820190815281906020010390fd5b83836000805160206112788339815191528403610656576100198383611157565b604051632a87526960e21b815290810184815281906020010390fd5b61069591935060203d60201161069c575b61068d81836104e1565b810190610e67565b9138610607565b503d610683565b60405163703e46dd60e11b81528390fd5b90508160008051602061127883398151915254161415386105d6565b3461019c57600036600319011261019c577f00000000000000000000000000000000000000000000000000000000000000006001600160a01b031630036107295760206040516000805160206112788339815191528152f35b60405163703e46dd60e11b8152600490fd5b3461019c57600036600319011261019c576020600354604051908152f35b3461019c576000806003193601126108565760085480156108115761078090421015610de3565b6006548155610790600754600155565b60065460075460408051838152602081018390527fe389aed8c1a1ad804f6016f77bc7e6ac9849fedf6180c1b49ea31317a4df719a93917f29aef07f5850115fac002dd55d217a8d0582e03177a712b3121c7c28fd4d3d9891a1604080519182526020820192909252a161080e600060065560006007556000600855565b80f35b60405162461bcd60e51b815260206004820152601f60248201527f584163636f756e743a204e6f2070656e64696e67206b657920757064617465006044820152606490fd5b80fd5b3461019c57600036600319011261019c5760065460075460085460408051938452602084019290925290820152606090f35b3461019c57600036600319011261019c5760408051906108aa826104c5565b60058252602090640352e302e360dc1b6020840152604051916020835283519182602085015260005b8381106108f55784604081866000838284010152601f80199101168101030190f35b85810183015185820183015282016108d3565b3461019c57600036600319011261019c576040517f00000000000000000000000000000000000000000000000000000000000000006001600160a01b03168152602090f35b3461019c57602036600319011261019c577f1656b058603b08f47ab4af479536712410f7dc58c00a08d0935744025ddbdfa2602060043561098c610e76565b80600355604051908152a1005b3461019c57606036600319011261019c576004356109b68161047d565b6044359067ffffffffffffffff9081831161019c573660238401121561019c57826004013591821161019c57366024838501011161019c57602461001993019060243590610e2f565b3461019c5760008060031936011261085657604051631aab3f0d60e11b8152306004820152602481018290526020816044817f00000000000000000000000000000000000000000000000000000000000000006001600160a01b03165afa908115610a9d576102b49291610a7e57506040519081529081906020820190565b610a97915060203d60201161069c5761068d81836104e1565b386102a3565b6040513d84823e3d90fd5b3461019c57600036600319011261019c576020600154604051908152f35b919082604091031261019c576020823592013590565b3461019c57604036600319011261019c57600435602435610afb610e76565b6202a300420191824211610b7d57827f7c2a35a7e6dcdc21f66694242ad94af78db698a8a2e348d37f2aef52bcd33a459360408051610b39816104a4565b84815285602082015201528160065582600755600855610b78610b5b42610d6b565b604051938493846040919493926060820195825260208201520152565b0390a1005b634e487b7160e01b600052601160045260246000fd5b3461019c57604036600319011261019c576000805160206112988339815191525467ffffffffffffffff60ff8260401c1615911680159081610cce575b6001149081610cc4575b159081610cbb575b50610ca957600080516020611298833981519152805467ffffffffffffffff1916600117905580610c7f575b610c2c602435600435600055600155683635c9adc5dea00000600355565b610c3257005b600080516020611298833981519152805460ff60401b19169055604051600181527fc7f505b2f371ae2175ee4913f4499e1f2633a7b5936321eed1cdaeb6115181d2908060208101610b78565b600080516020611298833981519152805460ff60401b191668010000000000000000179055610c0e565b60405163f92ee8a960e01b8152600490fd5b90501538610be2565b303b159150610bda565b829150610bd0565b3461019c57600036600319011261019c576020600054604051908152f35b15610cfb57565b60405162461bcd60e51b815260206004820152601b60248201527f584163636f756e743a204163636f756e742069732066726f7a656e00000000006044820152606490fd5b634e487b7160e01b600052603260045260246000fd5b9190811015610d665760051b0190565b610d40565b906202a3008201809211610b7d57565b91908201809211610b7d57565b35610d928161047d565b90565b903590601e198136030182121561019c570180359067ffffffffffffffff821161019c5760200191813603831361019c57565b90821015610d6657610ddf9160051b810190610d95565b9091565b15610dea57565b60405162461bcd60e51b815260206004820152601f60248201527f584163636f756e743a2053656375726974792044656c617920616374697665006044820152606490fd5b91610e5f90610e6594610e4760ff6005541615610cf4565b610e4f610f11565b610e58846110c7565b369161051f565b9161109f565b565b9081602091031261019c575190565b337f00000000000000000000000000000000000000000000000000000000000000006001600160a01b0316148015610f08575b15610eb057565b60405162461bcd60e51b815260206004820152602a60248201527f584163636f756e743a2063616c6c6572206973206e6f7420456e747279506f69604482015269373a1037b91039b2b63360b11b6064820152608490fd5b50303314610ea9565b7f00000000000000000000000000000000000000000000000000000000000000006001600160a01b03163303610f4357565b60405162461bcd60e51b815260206004820152601c60248201527f6163636f756e743a206e6f742066726f6d20456e747279506f696e74000000006044820152606490fd5b3d15610fb3573d90610f9982610503565b91610fa760405193846104e1565b82523d6000602084013e565b606090565b602081519101519060208110610fcc575090565b6000199060200360031b1b1690565b906101408201906040610fee8385610d95565b90501061109757611049611011611009600095948695610d95565b810190610ac6565b84546001546040805160208101978852908101949094526060840192909252608083015260a08083019190915281529060c0826104e1565b51906101005afa611058610f88565b901590811561108d575b8115611078575b5061107357600090565b600190565b6001915061108590610fb8565b141538611069565b8051159150611062565b505050600190565b916000928392602083519301915af16110b6610f88565b90156110bf5750565b602081519101fd5b8015611154576201518042048060005260046020526110eb82604060002054610d7b565b6003541061110f57600052600460205261110b6040600020918254610d7b565b9055565b60405162461bcd60e51b815260206004820152601e60248201527f584163636f756e743a204461696c79206c696d697420657863656564656400006044820152606490fd5b50565b90813b156111da5760008051602061127883398151915280546001600160a01b0319166001600160a01b0384169081179091557fbc7cd75a20ee27fd9adebab32041f755214dbc6bffa90cc0225b39da2e5c2d3b600080a28051156111bf57611154916111fb565b5050346111c857565b60405163b398979f60e01b8152600490fd5b604051634c9c8ce360e01b81526001600160a01b0383166004820152602490fd5b600080610d9293602081519101845af4611213610f88565b919061123b575080511561122957602081519101fd5b60405163d6bda27560e01b8152600490fd5b8151158061126e575b61124c575090565b604051639996b31560e01b81526001600160a01b039091166004820152602490fd5b50803b1561124456fe360894a13ba1a3210667c828492db98dca3e2076cc3735a920a3ca505d382bbcf0c57e16840df040f15088dc2f81fe391c3923bec73e23a9662efc9c229c6a00a26469706673582212206244c28d39f358075fe1ab3d9e352f9ca72b555d4f92bc03f518ca9c766e0c6c64736f6c63430008180033",
  "linkReferences": {},
  "deployedLinkReferences": {}
}